:100000000C9434000C9451000C9451000C94510049
:100010000C9451000C9451000C9451000C9451001C
:100020000C9451000C9451000C9451000C9451000C
:100030000C9451000C9451000C9451000C945100FC
:100040000C9451000C9451000C94D7000C94510066
:100050000C9451000C9451000C9451000C945100DC
:100060000C9451000C94510011241FBECFEFD8E026
:10007000DEBFCDBF11E0A0E0B1E0EEE8F3E002C0EA
:1000800005900D92AC34B107D9F721E0ACE4B1E0B2
:1000900001C01D92A839B207E1F70E94AA010C9491
:1000A000C5010C9400008CE191E00C94BF0086E245
:1000B00091E00C94BF0080E391E00C94BF0082E0DB
:1000C0008093C0001092C50080E18093C40086E058
:1000D0008093C20088E98093C10040E462E571E04A
:1000E0008CE491E00E94700178940895CF93DF939F
:1000F0000F92CDB7DEB7BE016F5F7F4F8CE491E00A
:100100000E9492018115B9F389810F90DF91CF91FF
:1001100008950E9476008D3009F48AE090E00895F9
:100120009091C00095FFFCCF8093C6000895CF93B7
:10013000DF930F92CDB7DEB789838A3019F48DE053
:100140000E94900089810E94900080E090E00F90D2
:10015000DF91CF9108950F931F93CF93DF93EC011D
:100160008C01060F171FC017D10729F4DF91CF911B
:100170001F910F91089589910E949000F4CF0F93E1
:100180001F93CF93DF93FC0101900020E9F78F01CB
:1001900001501109EC01C017D10729F4DF91CF916B
:1001A0001F910F91089589910E949000F4CF1F92A2
:1001B0000F920FB60F9211242F933F934F935F939B
:1001C0006F937F938F939F93AF93BF93EF93FF931F
:1001D0006091C6008CE491E00E947801FF91EF915C
:1001E000BF91AF919F918F917F916F915F914F914F
:1001F0003F912F910F900FBE0F901F9018958EE09A
:1002000091E080939401909395018093960190934F
:10021000970180E091E0809392019093930108957B
:100220000F931F93CF93DF93EC018C01060F171FE1
:10023000C017D10729F4DF91CF911F910F91089535
:100240000E9476008993F4CF0F931F93CF93DF938F
:10025000CDB7DEB72A970FB6F894DEBF0FBECDBF7D
:100260008B839C836D837E834F83588719861A8680
:1002700029853A858D819E812817390721F100E073
:1002800010E08B819C8129853A85820F931F898399
:100290009A8369817A818CE491E00E9492018115B0
:1002A00031F089859A85019689879A87E1CF80EA1E
:1002B0009FE000000197E9F70F5F1F4F2F813885FE
:1002C0000217130730F389859A852A960FB6F8949A
:1002D000DEBF0FBECDBFDF91CF911F910F9108956B
:1002E000FC01608371831282138214824583089516
:1002F000FC0194818581981798F48381A081B18154
:10030000A80FB11D6C9383818F5F838394819F5F5E
:1003100094839581891711F081E008951382FCCFB1
:1003200080E00895FC018481811599F08281A0818B
:10033000B181A80FB11D8C91DB018C9382818F5FFD
:1003400082839481915094839581891301C0128294
:1003500081E008950E945F000E94FF0061E170E06B
:100360008AE391E00E94AB000E947600823339F06C
:10037000833341F08133C1F70E945300F5CF0E94CF
:0E0380005700F2CF0E945B00EFCFF894FFCF42
:10038E0000000001000000000000890000000000D5
:10039E00000200000000970000000000636F6D6D0A
:1003AE00616E64203100636F6D6D616E642032008A
:1003BE00636F6D6D616E64203300747970652079A2
:0C03CE006F757220636F6D6D616E6400CE
:00000001FF
