:100000000C9434000C9451000C9451000C94510049
:100010000C9451000C9451000C9451000C9451001C
:100020000C9451000C9451000C9451000C9451000C
:100030000C9451000C9451000C9451000C945100FC
:100040000C9451000C9451000C949F000C9451009E
:100050000C9451000C9451000C9451000C945100DC
:100060000C9451000C94510011241FBECFEFD8E026
:10007000DEBFCDBF11E0A0E0B1E0E0E6F2E002C0FB
:1000800005900D92AC31B107D9F721E0ACE1B1E0B8
:1000900001C01D92A736B207E1F70E941D010C9422
:1000A0002E010C94000082E08093C0001092C500E5
:1000B00080E18093C40086E08093C20088E9809349
:1000C000C10040E461E271E08CE191E00E94D8005F
:1000D00078940895CF93DF930F92CDB7DEB7BE012A
:1000E0006F5F7F4F8CE191E00E94DF008115B9F3D3
:1000F00089810F90DF91CF9108950E946A008D3021
:1001000009F48AE090E008959091C00095FFFCCF3B
:100110008093C6000895CF93DF930F92CDB7DEB7DB
:1001200089838A3019F48DE00E94840089810E94BD
:10013000840080E090E00F90DF91CF9108951F92AE
:100140000F920FB60F9211242F933F934F935F930B
:100150006F937F938F939F93AF93BF93EF93FF938F
:100160006091C6008CE191E00E94FE00FF91EF914A
:10017000BF91AF919F918F917F916F915F914F91BF
:100180003F912F910F900FBE0F901F9018958EE00A
:1001900091E0809363019093640180936501909353
:1001A000660180E091E0809361019093620108957F
:1001B000FC01718360834483128213820895CF937C
:1001C000DF93FC01DB012FB7F894928183819813B0
:1001D00005C02FBF81E0DF91CF91089581E0890FA5
:1001E0003481831708F080E0C081D181C90FD11D0F
:1001F00098819C9382832FBF80E0EDCFFC012FB7C5
:10020000F89483818F5F9481891708F080E03FB76D
:10021000F8949281981307C091E0980F4481941745
:1002200008F090E092833FBF9381A081B181A90F34
:10023000B11D6C9383832FBF08950E9453008FE4F8
:100240000E9484008BE40E9484008DE00E94840060
:100250008AE00E9484000E946A00FBCFF894FFCFDE
:10026000000000010000000000007D000000000010
:0C0270000002000000008B0000000000F5
:00000001FF
