:100000000C9434000C9451000C9451000C94510049
:100010000C9451000C9451000C9451000C9451001C
:100020000C9451000C9451000C9451000C9451000C
:100030000C9451000C9451000C9451000C945100FC
:100040000C9451000C9451000C94F2010C9451004A
:100050000C9451000C9451000C9451000C945100DC
:100060000C9451000C94510011241FBECFEFD8E026
:10007000DEBFCDBF11E0A0E0B1E0E8E0FEE202C0EB
:1000800005900D92AE3AB107D9F721E0AEEAB1E0A2
:1000900001C01D92A63FB207E1F70E947F010C94B8
:1000A00002170C9400001F93CF93DF93C4E1D0E0BC
:1000B000D115A9F00E948E0212E38FE39CE901970B
:1000C000F1F700C000000E948802811559F00E94DB
:1000D0008E02C1E08C2FDF91CF911F9108950E9475
:1000E0008C02EACF115049F781E0D827C15001F7BF
:1000F000F1CFAAE9B0E0EFE7F0E00C946D16FC0157
:1001000083E0653189F494E13196DE01A958BF4F4F
:1001100001900D929A95E1F7CE0189589F4F0E9468
:100120007B04811108C085E00E94D701C656DF4FCD
:10013000E2E00C9489160E945300811102C086E00F
:10014000F3CFBE01665C7F4FCE018E599F4F0E9458
:100150006103811102C082E0E7CFCE0185579F4F36
:100160000E947E03AE014E595F4FBE0165577F4F1F
:10017000CE0189589F4F0E942D04198280E1FE0113
:10018000E557FF4FDE01129601900D928A95E1F737
:1001900088E2FE01FA96DE01529601900D928A9550
:1001A000E1F769E370E0CE0101960E94DE01BECF67
:1001B000AFEAB0E0EEEDF0E00C946D169C0183E048
:1001C000693209F584E1F9013196DE01A557BF4F87
:1001D00001900D928A95E1F794E1F9017596DE019F
:1001E000A958BF4F01900D929A95E1F7CE0185571E
:1001F0009F4F0E94E403C155DF4F8883CF5AD04000
:10020000813141F484E00E94D701C155DF4FE2E023
:100210000C9489160E945300811102C086E0F3CF2E
:10022000AE014E595F4FBE0161567F4FC155DF4F42
:100230008881CF5AD0400E948904AE01465C5F4F4E
:10024000BE0169587F4FCE018E599F4F0E94830394
:10025000811102C082E0D7CF198280E1FE01E15610
:10026000FF4FDE01129601900D928A95E1F788E228
:10027000FE01FA96DE01529601900D928A95E1F701
:1002800069E370E0CE0101960E94DE01BECF0E94BC
:100290005300811104C086E00E94D70108950E9496
:1002A000BB0380E0F9CFA7E6B2E0E9E5F1E00C940A
:1002B0006D161982BE0169597D4FCE0103960E94C9
:1002C000AF04C959DD4F6881C756D2406A8384E2C2
:1002D000689FB00111246E5F7F4FCE0101960E948E
:1002E000DE01C959DD4FE2E00C9489160E94C0017D
:1002F0000E9485020E9402030E94CB030895CDB79D
:10030000DEB7C154D1090FB6F894DEBF0FBECDBF22
:100310000E9476010E944702892BE1F32FEF81EEC4
:1003200094E0215080409040E1F700C00000BE0101
:100330006F5B7F4FCE0101960E941A028981823045
:10034000A1F028F4811109C00E945301E3CF83304A
:10035000A1F081E00E94D701DDCF22966FAD2297F8
:10036000CE0101960E947900D5CF22966FAD2297DB
:10037000CE0101960E94D800CDCF0E944701CACF7E
:1003800082E08093C0001092C50080E18093C40099
:1003900086E08093C20088E98093C10040E464EB6A
:1003A00071E08EEA91E00E944B027894089590915A
:1003B000C00095FFFCCF8093C60008950F931F9354
:1003C000CF93DF93EC018C01060F171FC017D107E5
:1003D00029F4DF91CF911F910F91089589910E9487
:1003E000D701F4CF1F920F920FB60F9211242F93C3
:1003F0003F934F935F936F937F938F939F93AF93AD
:10040000BF93EF93FF936091C6008EEA91E00E9444
:100410005302FF91EF91BF91AF919F918F917F9187
:100420006F915F914F913F912F910F900FBE0F9061
:100430001F901895A6E0B0E0E0E2F2E00C946D1693
:1004400089839A836B837C831D821E8269817A8172
:10045000ED81FE816E0F7F1F8EEA91E00E946D029A
:1004600081110AC0FD81F9838981EB81FC81808340
:100470002696E2E00C9489168D819E8101968D83EB
:100480009E838034910511F780E48983EDCF8091BC
:10049000B20190E00895FC0160837183128213829F
:1004A000148245830895FC0194818581981798F4FE
:1004B0008381A081B181A80FB11D6C9383818F5F6F
:1004C000838394819F5F94839581891711F081E0E4
:1004D00008951382FCCF80E00895FC01848181158A
:1004E00099F08281A081B181A80FB11D8C91DB01AF
:1004F0008C9382818F5F82839481915094839581C4
:10050000891301C0128281E0089552985A9A089581
:1005100088274A9B839508955C9A08955C9808956E
:10052000A0E0B0E0E6E9F2E00C946716FC01EC0113
:10053000C60FD71FCE17DF0739F481E090E0CDB7A3
:10054000DEB7E8E00C94831680917A008064809393
:100550007A0080917A0086FDFCCFE0907800F090E0
:100560007900D6B40091840010918500C090B2004B
:10057000209100013091010140910201509103014D
:100580006DE67EE486EC91E40E94E815DC01CB0187
:10059000875C9F4CAF4FBF4F4C2D4E2584279F2526
:1005A000AD25A127902740E0582F692F7A2F25E00D
:1005B000440F551F661F771F2A95D1F7842795276B
:1005C000A627B727AD015695479584279527AC01F7
:1005D000BD0125E0440F551F661F771F2A95D1F7EF
:1005E00084279527A627B7278093000190930101C0
:1005F000A0930201B0930301B1938AE18A95F1F7C8
:1006000000C098CF0F931F93CF93DF9382E085BDF7
:1006100081E08093810086E08093B10080E4809344
:100620007C0086E880937A00E0E220E030E08901F7
:1006300080917A00806480937A0080917A0086FDB0
:10064000FCCFC0917800D091790066B540918400CC
:10065000509185008091B200B0E08C279D2FA62F8D
:10066000A5279427AC016A2F402751276227732FB3
:10067000440F551F661F771F411DCFE8D1E021971A
:10068000F1F700C00000E150C9F480179107A207FC
:10069000B30719F46DEE7EE5AB0140930001509372
:1006A0000101609302017093030180E992E00E94CE
:1006B0001515DF91CF911F910F9108958A019B012C
:1006C000B7CFA4E0B0E0E7E6F3E00C946D168983C1
:1006D0009A836B837C830E941A15AC0169817A81AD
:1006E0008B819C810E941D159C0181E02130310588
:1006F00009F080E02496E2E00C94891660E170E055
:100700000E9490020895A6E0B0E0E9E8F3E00C94BE
:100710006B1689839A836B837C834D835E830E94EF
:100720001A158C012D813E8144E150E06B817C8162
:1007300089819A810E94A0159C0181E021303105B8
:1007400009F080E02696E4E00C9487160F931F933F
:10075000CF9300E010E0C0E0C8010E94E2168F3F96
:1007600029F0CF5F075C1F4FC131B1F78C2FCF91BC
:100770001F910F910895CF93DF93C0E0D0E06FEF0A
:10078000CE010E94F416E996C93C83E0D807B9F778
:10079000DF91CF91089589EC90E00E94E2168A3CA7
:1007A00031F48AEC90E00E94E2168E3F61F00E94E4
:1007B000BB036AEC89EC90E00E94F4166EEF8AECC1
:1007C00090E00E94F4160895AF92BF92CF92DF920C
:1007D000EF92FF921F93CF93DF93CDB7DEB764976D
:1007E0000FB6F894DEBF0FBECDBF6C01E12CF12C2B
:1007F00010E05C0184E1A80EB11CC7010E94E21662
:100800008F3F21F144E150E0B701CE0101960E94F3
:10081000D216DE011196F6019C918081981316C0C4
:1008200011963196EA15FB05B9F7812F64960FB63C
:10083000F894DEBF0FBECDBFDF91CF911F91FF9027
:10084000EF90DF90CF90BF90AF9008951F5F89E346
:10085000E80EF11C113189F6E8CFA8E0B0E0E3E33F
:10086000F4E00C946D1689839A836B837C834D83AB
:100870005E830E94E4038131F1F099E3899F900146
:10088000112429833A83B9016C5E7F4F40E150E027
:100890008B819C810E94EA1669817A816C5D7F4F11
:1008A00045E150E08D819E810E94EA1681E0289604
:1008B000E2E00C9489160E94A6038131D1F099E3FD
:1008C000899F900111242F83388744E150E0B901BA
:1008D00089819A810E94EA166F8178856C5E7F4FCC
:1008E00040E150E08B819C810E94EA166F817885FF
:1008F000D5CF80E0DCCF0E94E403813141F40E9437
:10090000A60391E0813109F490E0892F089581E0F8
:100910000895A4E0B0E0EFE8F4E00C946D168B834A
:10092000CB0149835A832B8149E3249F90011124F1
:100930002B833C83B9016C5E7F4F40E150E00E9405
:10094000D2166B817C816C5D7F4F45E150E08981DF
:100950009A810E94D2162496E2E00C948916CF92D6
:10096000DF92EF92FF921F93CF93DF9300D000D0DE
:10097000CDB7DEB76C0169837A831B821C8210E0DD
:100980008B819C810E94E2168F3FD1F024E2129F5E
:100990007001112440E150E06B817C816C5E7F4FDF
:1009A000C6018E0D9F1D0E94D216C701409644E1DC
:1009B00050E06B817C818C0D9D1D0E94D2161F5FC3
:1009C0008B819C81C9968B839C83893C9340C1F623
:1009D000E981FA8110830F900F900F900F90DF91B3
:1009E000CF911F91FF90EF90DF90CF900895FC0181
:1009F00080E086170CF008951192119211921192D5
:100A00008F5FF7CFCF92DF92EF92FF92FC0180E0F1
:100A100040E050E09A01861774F061E070E080E0F9
:100A200090E0232B242B252B09F060E0FF90EF9022
:100A3000DF90CF900895C190D190E190F1902C2952
:100A40003D294E295F298F5FE6CF9B0145E0359513
:100A500027954A95E1F7220F331F220F331FFC0120
:100A6000E20FF31F9B012F7161E070E080E090E0E6
:100A700004C0660F771F881F991F2A95D2F720811F
:100A80003181428153816223732384239523089506
:100A9000CF92DF92EF92FF926150762F770F770B14
:100AA00067FD12C09B0121503109F901EE0FFF1FB4
:100AB000EE0FFF1FE80FF91FC480D580E680F78096
:100AC000CD28CE28CF2879F16F5F99F1262F660FB8
:100AD000330BA9014150504C440F551F440F551F73
:100AE000840F951FFC016081718182819381009741
:100AF00070406040D1F00E940C1640E250E0BA0114
:100B0000681B790BCB012150310940E2349F302D15
:100B1000249F202D31291124820F931FFF90EF90E5
:100B2000DF90CF900895B901BBCFA0E0B0E0CD0138
:100B3000EACF80E090E0F2CF0F931F93FB01DC013E
:100B400080E084171CF01F910F910895019111917D
:100B5000219131910D931D932D933D938F5FF1CF93
:100B6000CF92DF92EF92FF92CF93DF93FC0141503F
:100B7000542F550F550B47FF08C080E0DF91CF91F0
:100B8000FF90EF90DF90CF9008959A01220F331FCE
:100B9000220F331FDF01A20FB31FCD90DD90ED9028
:100BA000FD90260F371FE90188819981AA81BB81B9
:100BB0008C159D05AE05BF0548F041505109C8167A
:100BC000D906EA06FB06B8F68FEFD8CF81E0D6CF7C
:100BD000CF92DF92EF92FF920F931F9324E0620275
:100BE000F0011124E80FF91F20E030E089018E1791
:100BF0009F0738F01F910F91FF90EF90DF90CF90FB
:100C00000895F290E290D290C290A601B701769535
:100C1000679557954795402B512B622B732B40833B
:100C2000518362837383C0FA332737F920E000E0F1
:100C300010E0DDCFA3E0B0E0E0E2F6E00C94631654
:100C400029835C01DB014A0140E080E090E0BC01C7
:100C5000F9814F1724F02396ECE00C947F16CD9089
:100C6000DD90ED90FD90F401019111912191319170
:100C70004F010C0D1D1D2E1D3F1D060F171F281F98
:100C8000391FC016D106E206F30659F051E00C15E3
:100C90001D052E053F0508F050E0652F70E080E04F
:100CA00090E0F50101931193219331935F014F5F20
:100CB000CFCFA3E0B0E0EFE5F6E00C945F16298318
:100CC0003C01DB012A0140E080E090E0BC01F981B9
:100CD0004F1724F02396E0E10C947B16CD90DD9025
:100CE000ED90FD90F20181909190A190B1902F0133
:100CF00086019701061B170B280B390B08191909D8
:100D00002A093B09C016D106E206F30659F051E064
:100D1000C016D106E206F30608F050E0652F70E039
:100D200080E090E0F30101931193219331933F010F
:100D30004F5FCDCFA2E2B0E0E0EAF6E00C946D1692
:100D400049A3242FAB01BC01CE0101960E94590694
:100D50006AA369A1CE0101960E940205862F21E0B7
:100D600082272AA1220F821BA296E2E00C94891608
:100D70000F93CF93DF9300D000D0CDB7DEB78B8336
:100D80009C8329833A83202F0E941A06672B682BA5
:100D9000692B49F4402F6B817C8189819A810E9463
:100DA000B005813041F0202F49815A816B817C81CF
:100DB000CB010E9459060F900F900F900F90DF917A
:100DC000CF910F910895A4E9B0E0E9EEF6E00C941C
:100DD0005D16C257DF4F99838883CE58D0404A01B1
:100DE000CB57DF4F2883C558D040CE010196CF574F
:100DF000DF4F99838883C158D040CD57DF4F798327
:100E00006883C358D040E22EF22EFF0CFF08622FF9
:100E1000CA010E944805CB57DF4F2881C558D040F2
:100E200030E4230210011124281A390A810137FE07
:100E300002C0015E1F4F65E0159507956A95E1F7C1
:100E400070E2A72EB12CC101B5010E94F8156C010A
:100E5000602FCE018F5B9F4F0E94F7041C140CF093
:100E600089C0D40144E00402F0011124BE016F5B8B
:100E70007F4FE60FF71F80E090E02C0132019101D7
:100E80002F71A5014C19C42E8E159F0509F050C075
:100E90006701CC0CDD1CC657DF4FD982C882CA5807
:100EA000D040C701880F991F880F991F21E4C22ED7
:100EB000D12CCC0EDD1EC80ED91ECA57DF4FD982E9
:100EC000C882C658D040A12CB12C4501839421E0A2
:100ED000E21AF108EE0CFF1CEE0CFF1C51E4C52ECB
:100EE000D12CCC0EDD1ECE0CDF1CC857DF4FD982B3
:100EF000C882C858D04037FE0BC1880C991CFE012F
:100F0000EF57FF4FE80DF91D60817181CB57DF4F1F
:100F10004881C558D040C257DF4F88819981CE584B
:100F2000D0400E949C05CC56DF4FE2E10C9479162C
:100F30008D909D90AD90BD90A401B501022E04C08E
:100F4000440F551F661F771F0A94D2F7442955296D
:100F50006629772941935193619371932401350157
:100F60000C2C04C076946794579447940A94D2F753
:100F700001968ACF54E00502C0011124CB57DF4F00
:100F80004881C558D040B401DE01AF5BBF4F8A0F26
:100F90009B1F0E949C057CCFCC56DF4F8881C45993
:100FA000D04094E0890290011124C457DF4FA881FA
:100FB000B981CC58D0408D919D91FC01E20FF31F77
:100FC0004080518062807380FE01EF5BFF4FE20F33
:100FD000F31F80819181A281B3816C017D01C40ED8
:100FE000D51EE61EF71EC201D3018C199D09AE095C
:100FF000BF09C057DF4F88839983AA83BB83C05939
:10100000D040481659066A067B0699F081E0C05721
:10101000DF4FC880D980EA80FB80C059D0404C1493
:101020005D046E047F0408F080E0482F50E060E02B
:1010300070E0D8018D919D91820F931FC057DF4FB3
:10104000C880D980EA80FB80C059D040DC01CD92B5
:10105000DD92ED92FD92CC56DF4FB881C459D0405D
:10106000BF5FCC56DF4FB883C459D040CC56DF4F5A
:101070002881C459D040C657DF4FE880F980CA584C
:10108000D040022E001C00082E150F040CF484CF53
:1010900081E084169506A606B70609F080E0882E42
:1010A000912CA12CB12CCB57DF4F6881C558D04073
:1010B000CE018F5B9F4F0E94E805CA57DF4FE88142
:1010C000F981C658D040808180FBBB27B7F9C8574B
:1010D000DF4FE881F981C858D04040815181628159
:1010E0007381CA01B72B808391836283B383CB570B
:1010F000DF4F6881C558D040CA57DF4F888199813A
:10110000C658D0400E94E805F1E02F1A3108F3CE0E
:10111000CC56DF4F1882C459D04040E050E0BA01AD
:10112000C401880F991FFE01EF57FF4FE80FF91F09
:10113000C457DF4FF983E883CC58D0408401F1E0F5
:101140000F27000F111FF1E8CF2ED12CCC0EDD1E82
:101150000C0D1D1D8BCFA4E0B0E0E1EBF8E00C948A
:1011600067166B0149835A83F9010280F381E02DF0
:10117000EB83FC838F01015E1F4F12F4015E1F4F52
:1011800045E0159507954A95E1F72C5D3F4F7901AC
:10119000202FA701BC01C6010E941A06672B682BED
:1011A000692B31F520E20202C00111244B815C81E0
:1011B000481759070CF5BA01C6010E94250521E020
:1011C000672B682B692B09F420E02B831C82202FCE
:1011D000A701B60189819A810E941A06EB81FC81E0
:1011E000BF01FF0F880B982F2496E8E00C9483161C
:1011F00081E08B831C82EBCF1B821C82E8CFA5E0B1
:10120000B0E0E5E0F9E00C9463168C016A837B831F
:1012100049838091F4019091F501892B31F480E0AC
:1012200090E02596ECE00C947F1669818A819B8181
:101230000E944805298134E0230260011124A6019F
:1012400044505109400F511F4C835D8350E22502E9
:1012500090011124281BE12CF12C8FEFB82EAB2C20
:10126000450104C0B694A794979487942A95D2F721
:10127000E091F401F091F501B601C8010995892BBF
:1012800071F2EC81FD8180819181A281B3818821FD
:101290009921AA21BB2180839183A283B383698191
:1012A000C8010E940205672B682B692B41F4498114
:1012B000B8018A819B810E949A06813041F0FFEF3C
:1012C000EF1AFF0A20E4E216F10491F6A8CF81E0BC
:1012D00090E0A7CFA4E0B0E0E0E7F9E00C94691655
:1012E000DB014B835C839B017C0180E090E08A17EB
:1012F0009B0724F02496E6E00C94851621503109D2
:10130000B9016C7F0B811C81600F711F422F4370EC
:1013100050E0FA0143E0EE0FFF1F4A95E1F7E98341
:10132000FA83FB014081518162817381098004C08D
:1013300076956795579547950A94D2F7F7014193AB
:101340007F010196D4CFA0E0B0E0E9EAF9E00C9487
:1013500063168C017B01EA01BA016D5F7F4F12F4C5
:101360006D5F7F4F7595679575956795C8010E946C
:10137000F7049E01470160E070E06C177D072CF0D8
:10138000CDB7DEB7ECE00C947F1621503109A901EE
:101390004C7F5A01A00EB11EF40181914F0190E0E3
:1013A000A0E0B0E0E22EF3E0EF22F12C43E0EE0CFF
:1013B000FF1C4A95E1F704C0880F991FAA1FBB1FA5
:1013C000EA94D2F7F501C080D180E280F3808C29C5
:1013D0009D29AE29BF2980839183A283B3836F5F48
:1013E0007F4FCBCFA0E0B0E0E8EFF9E00C945F16C0
:1013F0006C014B017901F901A280B3808501015E86
:101400001F4F12F4015E1F4F35E0159507953A9571
:10141000E1F7E50127960AF4279623E0D595C795CD
:101420002A95E1F74C175D0708F4EA01602FC60121
:101430000E94F704AE01B401C6010E94A30993E023
:10144000CC0FDD1F9A95E1F7AC16BD0610F5CA1951
:10145000DB09F801EE0FFF1FEE0FFF1FEC0DFD1D66
:10146000612C712C230180E290E08C1BCE16DF06EC
:10147000A8F084E2E80EF11C402FB601C7010E94DB
:10148000B005813031F0202FA701B601C6010E94BE
:101490005906CDB7DEB7E0E10C947B16B290A2906E
:1014A00092908290A401B5010C2E04C076956795A8
:1014B000579547950A94D2F74429552966297729E3
:1014C000408351836283738324013501082E04C055
:1014D000440C551C661C771C0A94D2F7C7CF0F9397
:1014E000CF93DF9300D000D0CDB7DEB78B839C8342
:1014F00029833A83202F0E945906672B682B692B7A
:1015000041F0202F49815A816B817C81CB010E945F
:101510001A060F900F900F900F90DF91CF910F91BF
:101520000895CF92DF92EF92FF92CF93DF9300D096
:101530000F92CDB7DEB78A839B834983FC018081FC
:101540009181A281B38180FBCC24DD247601C0F897
:1015500080FF08C0242FAB01BF01CF010E941A06F3
:101560006B017C0169818A819B810E94E805CD28FD
:10157000CE28CF28B9F08981E82F880FFF0BE150E2
:10158000F04CEE0FFF1FEE0FFF1F8A819B81E80FCB
:10159000F91F80819181A281B381B068808391839A
:1015A000A283B3830F900F900F90DF91CF91FF90A4
:1015B000EF90DF90CF900895A5E8B0E0E2EEFAE07A
:1015C0000C946716CD57DF4F99838883C358D0405A
:1015D0007B018A01CF57DF4F2883C158D040622F4B
:1015E000C7010E940205672B682B692B91F0CF572A
:1015F000DF4F6881C158D040CD57DF4F8881998136
:10160000C358D0400E94F704CB57DF4FE8E00C945A
:101610008316CF57DF4F4881C158D040B701CE0164
:101620008F599F4F0E949C05CF57DF4F4881C1586B
:10163000D040B801CE018F5B9F4F0E949C056E0188
:1016400081E2C80ED11CCF57DF4F6881C158D0400E
:10165000C6010E94F70481E089A31AA21BA21CA262
:10166000CF57DF4F6881C158D0407E018FEFE81A15
:10167000F80AC7010E94F704CB57DF4FD882C5583C
:10168000D040DE2CCF57DF4F4881C158D040BE013B
:101690006F5B7F4FCE018F599F4F0E94B005811124
:1016A00014C0CF57DF4F4881C158D0406C2DCB5765
:1016B000DF4F7881C558D040CD57DF4F8881998161
:1016C000C358D0400E949C059FCFA5964CAD5DAD00
:1016D0006EAD7FADA59740FD19C0CF57DF4F688134
:1016E000C158D040CE018F599F4F0E94E805CF5777
:1016F000DF4F4881C158D040B8018C2DCB57DF4F08
:101700009881C558D0400E94910ABCCF25964CAD17
:101710005DAD6EAD7FAD259740FD13C0CF57DF4F58
:101720006881C158D040CE018F5B9F4F0E94E80571
:10173000CF57DF4F4881C158D040B8018D2D9F2D24
:10174000E2CFCF57DF4F2881C158D040AE01813062
:1017500009F045C04F5B5F4FBE016F597F4FCB0112
:101760000E945906CF57DF4F6881C158D040CE0143
:101770008F599F4F0E94E805CF57DF4F4881C158CE
:10178000D0406D2D7F2D8C2DCB57DF4F9881C558C4
:10179000D0400E94B0058F3F81F4CF57DF4F2881A2
:1017A000C158D040A8016C2DCB57DF4F7881C55868
:1017B000D0408C2D972F0E941A06CF57DF4F2881DB
:1017C000C158D0404D2D5F2D6C2DCB57DF4F788108
:1017D000C558D0408C2D972F0E94590688CF4F595D
:1017E0005F4FBE016F5B7F4FCB010E945906CF5701
:1017F000DF4F6881C158D040CE018F5B9F4F0E9460
:10180000E805CF57DF4F4881C158D0406C2DCB57EA
:10181000DF4F7881C558D0408D2D9F2D0E94B00597
:101820008F3F61F4CF57DF4F2881C158D040A801C6
:101830006D2D7F2D8D2D9F2D0E941A06CF57DF4FC6
:101840002881C158D0404C2DCB57DF4F5881C55807
:10185000D0406D2D7F2D8D2D9F2D0E94590668CF74
:10186000AAE2B0E0E6E3FCE00C945D168A8F9B8F61
:101870006C8F7D8F4E8F5F8F2A871C014C5F5F4F6F
:101880004A01612C712C2301620172011982B98114
:10189000EA85BE174CF18E2F880F990B9C012150C1
:1018A000310928A339A331E03D832E2E2A948D815E
:1018B000820DE8A1F9A1082E001C00088E170F0662
:1018C0000CF49EC0FA8528E0F202C00111244A8D72
:1018D0005B8D840F951FFC01F292E292D292C2922C
:1018E000AA96E2E10C9479164C8D5D8D4B875C874E
:1018F0008D869E861E821F82188619861D82AB8564
:10190000BC852D913D914D915D91AB87BC87ED8557
:10191000FE859291829172916291ED87FE870E947D
:1019200032162F87388B498B5A8B6B8B7C8B8D8B28
:101930009E8B9201A3013BA36CA25DA31EA21FA2DA
:1019400018A619A6C301B201AC2CBD2C6701E42C6A
:10195000F72E192F2F85388949895A896B897C89F7
:101960008D899E89062D0E9494162AA33AA7F42FEA
:10197000E52FDB01898F98A344244394512C612CDB
:10198000712CAF84B888C988DA88EB88FC880D8907
:101990001E890E949D1608F0412C4E815F8168854A
:1019A0007985440D551D661D771D4E835F836887BD
:1019B0007987898D98A100E29D01AC012D013A0142
:1019C000CAA0DAA4EF2EFE2E6D816F5F6D83798140
:1019D00076170CF094CFD101CD92DD92FD93EC936C
:1019E00084E0280E311C99819F5F9983A4E08A0EC0
:1019F000911C69017A014E805F806884798447CFA9
:101A00004D81542F550F550B4E835F8394E089020F
:101A1000B00111246B877C8742015301612C712C2A
:101A200023017E818A85781784F0EA8DFB8DAB8552
:101A3000BC85EA0FFB1FC082D182E282F382BD81A6
:101A4000BF5FBD836401750132CF6CEF4E815F8152
:101A500064039001659F300D1124EC8DFD8DE21B18
:101A6000F30B6081718182819381AB85BC852A0FE4
:101A70003B1FEE8DFF8DE20FF31F208131814281EC
:101A800053810E9432162D873F87488B598B6A8B72
:101A90007B8B8C8B9D8B9401A5018AA23BA3ACA26E
:101AA0005DA31EA21FA218A619A6C501B401AC2CE5
:101AB000BD2C6701E82CF72EE42F192F2D853F85CB
:101AC000488959896A897B898C899D890E2F0E9452
:101AD0009416B22FA32FF42FE52F6E8B7F8B888F58
:101AE000998F31E039831A821B821C822B2F3A2F67
:101AF0004F2F5E2FAD84BF84C888D988EA88FB88C1
:101B00000C891D890E949D1608F0198249815A810D
:101B10006B817C81440E551E661E771E6E897F89FF
:101B2000888D998D00E29B01AC0149015A01CB2EB1
:101B3000DA2EEF2EFE2E6E817F816F5F7F4F6E83D8
:101B40007F836FCF0F93CF93DF93CDB7DEB7C454AE
:101B5000D1090FB6F894DEBF0FBECDBF23969FAF5D
:101B60008EAF239725963FAF2EAF2597202FCE011E
:101B700001960E94300C202F25964EAD5FAD259723
:101B8000BE016F5F7F4F23968EAD9FAD23970E945E
:101B9000E306CC5BDF4F0FB6F894DEBF0FBECDBFC0
:101BA000DF91CF910F910895A3E4B0E0EAEDFDE05D
:101BB0000C946B1624969FAF8EAF24978901F90180
:101BC000F0812296FFAF22972F2FCE0101960E941F
:101BD000300CA8014C5F5F4F22962FAD2297BE01BB
:101BE0006F5F7F4F24968EAD9FAD24970E94E306D2
:101BF000CD5BDF4FE4E00C9487169A01AB010E94A5
:101C0000D40D0895A4E4B0E0E8E0FEE00C945D1685
:101C10006C013B017A014901F9011081612FCA0170
:101C20000E940205672B682B692B09F0D4C02E0196
:101C3000F1E24F0E511CA401B301C2010E94FD0D3F
:101C40009401A201B6011E018FEF281A380AC101C2
:101C50000E94D40DA401B201C2010E94FD0D9401A5
:101C6000A701B301C3010E94D40DA401B701C701AC
:101C70000E94FD0D5401E4E0AE0EB11C012F950150
:101C8000A701B601C6010E94B8069501A701B701D8
:101C9000C7010E94B8069501A701B601C7010E94BD
:101CA0006F0A9401A701B601C6010E94D40D9501E7
:101CB000A601B601C7010E94B8069501A701B601A9
:101CC000C6010E94B806F60180819181A281B3818C
:101CD00023964FAE239724965FAE249725962FAE7A
:101CE000259722963FAE229780FF7AC0212FA5012B
:101CF000B601C6010E941A061B012C01612FC60104
:101D00000E94E805E12FF12FFF0FFF0BE150F04C8F
:101D1000EE0FFF1FEE0FFF1FEC0DFD1D20FA7727C2
:101D200077F980819181A281B381B72B80839183E0
:101D3000A283B383A401B601C7010E94FD0D012F48
:101D4000950125964FAD259722965FAD2297B70155
:101D5000C7010E946F0A950125964FAD25972296DF
:101D60005FAD2297B701C7010E946F0A9501A701D5
:101D700025966FAD259722967FAD2297CB010E94C5
:101D80006F0A940125964FAD259722965FAD229755
:101D9000B601C6010E94D40D950123964FAD23973D
:101DA00024965FAD2497B601CA010E946F0A412FA5
:101DB000B701C6010E949C05412FB301C7010E94D3
:101DC0009C05412F23966FAD239724967FAD2497D2
:101DD000C3010E949C05CC5BDF4FE2E10C947916B5
:101DE000612FC6010E94E805A5CFAF92BF92CF92A6
:101DF000DF92EF92FF920F93CF93DF93CDB7DEB7D1
:101E0000A3970FB6F894DEBF0FBECDBF7C016AA3C7
:101E10007BA36A01FE0135968CE1DF011D928A9554
:101E2000E9F783E089831A821B821C82FA01F08120
:101E3000F9A36AA17BA1C7010E94FD0D560184E0B0
:101E4000A80EB11C09A19501AE014F5F5F4FB7010C
:101E5000C7010E946F0A96014AA15BA1B701C701A1
:101E60000E94D40DA6014C575F4F09A19501B701FF
:101E7000C7010E94B806A3960FB6F894DEBF0FBE46
:101E8000CDBFDF91CF910F91FF90EF90DF90CF907A
:101E9000BF90AF900895A3E4B0E0E1E5FFE00C94BB
:101EA000671624969FAF8EAF24976B012CE1FE013D
:101EB000B596DF01822F1D928A95E9F781E089A30B
:101EC0001AA21BA21CA2AE014B5F5F4FFA01119236
:101ED0002A95E9F789831A821B821C82DB01BC9157
:101EE0002296BFAF22977E01E1E2EE0EF11C6C5FFD
:101EF0007F4F2B2FA701C7010E941A0622966FADB4
:101F00002297C7010E9448058C0101501109023037
:101F100011058CF422964FAD2297BE016F5F7F4F63
:101F200024968EAD9FAD24970E949C05CD5BDF4F1C
:101F3000E8E00C948316A601BE016F5F7F4FCB01D2
:101F40000E94FD0DB801C7010E942505672B682B73
:101F5000692BD9F2960124964EAD5FAD2497BE0150
:101F60006F5F7F4FCB010E94D40DCFCFA6E2B0E0D0
:101F7000ECEBFFE00C946B1689A39AA36BA37CA3F4
:101F80004DA35EA38901A9016DA17EA1CE01019699
:101F90000E94FD0D9801AE014F5F5F4F69A17AA1CC
:101FA000CB010E94D40D98014DA15EA1BE016F5FCF
:101FB0007F4FCB010E94D40D9801AE014F5F5F4F60
:101FC0006BA17CA1CB010E94D40DA696E4E00C94F9
:101FD0008716A2E2B0E0EFEEFFE00C945F164C0132
:101FE0002B016A01590109A31AA3F70110813701D6
:101FF000F4E06F0E711C012F9301AC01B601CE010C
:1020000001960E946F0AA701BE016F5F7F4FCB014F
:102010000E94FD0D9701AE014F5F5F4FB401C401F7
:102020000E94D40D9701AE014F5F5F4FB601C6010C
:102030000E94D40D9301A201B501C5010E946F0A4F
:10204000A701B501CE0101960E94FD0D9301A401E7
:10205000BE016F5F7F4FCB010E946F0A9301A60103
:10206000BE016F5F7F4FCB010E946F0A9301A401F5
:10207000B601C6010E946F0A9701A601B201C20112
:102080000E94D40D9301AE014F5F5F4FB40189A14F
:102090009AA10E946F0A970149A15AA1B501C501F1
:1020A0000E94D40D9301A201B501C5010E946F0ADF
:1020B000412FBE016F5F7F4FC6010E949C05A29613
:1020C000E0E10C947B16A0E6B0E0E9E6F0E10C94C8
:1020D0005F164C012B015A016901B8013701F70164
:1020E0001081A701CE018F5B9F4F0E94FD0D9701CC
:1020F000AE014F5B5F4FB401C4010E94D40D970144
:10210000AE014F5B5F4FB501C5010E94D40DF4E0F5
:10211000EF0EF11C012F9701A201B601CE018F5BDA
:102120009F4F0E94B8069701A201B601C6010E9406
:102130006F0A9701A401B501CE0181960E946F0A32
:102140009301AE014F5D5F4FB201C2010E94D40DF9
:102150009701A501B401CE0181960E94B806A301A2
:10216000B601C5010E94FD0D9701AE014F5D5F4FA5
:10217000B501C5010E946F0A9701A501B401CE0106
:1021800001960E946F0A9301AE014F5F5F4FB60147
:10219000C6010E94D40D9701A201B601C6010E949A
:1021A0006F0AA301BE016F5B7F4FCE0101960E94B3
:1021B000FD0D9701AE014F5D5F4FBE016F5F7F4F19
:1021C000CB010E946F0A9701A401BE016F5F7F4F90
:1021D000CE0181960E946F0A9301AE014F5B5F4F63
:1021E000BE016F5D7F4FCB010E94D40D9701A2010C
:1021F000BE016F5D7F4FC2010E946F0A412FBE0179
:102200006F5F7F4FC4010E949C05C05ADF4FE0E121
:102210000C947B16ADECB0E0E0E1F1E10C945D16BE
:10222000C653DF4F99838883CA5CD040CC53DF4FBD
:1022300079836883C45CD040C453DF4F598348839B
:10224000CC5CD040590138016701F701F081CF53D0
:10225000DF4FF883C15CD0407E0121E6E20EF11C25
:102260004F2FC7010E949C05CF53DF4F3881C15CBF
:10227000D04044E0340210011124CC53DF4F888158
:102280009981C45CD040820D931DCA53DF4F99835E
:102290008883C65CD0408E010F5D1F4F432FBC0169
:1022A000C8010E949C05F6019080A114B10409F4B4
:1022B00016C1492DB501CE018F579F4F0E949C0535
:1022C000492DB701CE018F5B9F4F0E949C05492D80
:1022D000B801CE0101960E949C059601AE014F57B0
:1022E0005F4FB801C7010E94B60FF601EC55FF4FD2
:1022F0000190F081E02D9601AE014F575F4FB8017C
:10230000C70109959601AE014F575F4FBE016F5F40
:102310007F4FCE018F5B9F4F0E94B60F96012C5FBF
:102320003F4FCE53DF4F39832883C25CD040CF5319
:10233000DF4F0881C15CD040A701BE016F5B7F4FBA
:10234000CE018F579F4F0E946F0A430132E0831ADC
:102350009108181419040CF4D5C0C453DF4FE88158
:10236000F981CC5CD0408081817090E0AC01F1E0DB
:102370004F275195419551094072442E5524712C97
:102380006F2E6C0E7D1E640C751C9E012F5B3F4FE3
:10239000420E531E9195819591098072A82EBB24FF
:1023A000912C8F2E8C0E9D1E8A0C9B1CA20EB31E90
:1023B00076018E010F571F4F9301A201B401C50191
:1023C0000E946310CF53DF4F0881C15CD040CE53D1
:1023D000DF4F28813981C25CD040AE014F5B5F4F37
:1023E000BE016F597F4FCE018F559F4F0E946F0ADC
:1023F0009601A401BE016F557F4FCB010E94D40D01
:102400009601CC53DF4F48815981C45CD040BE0156
:102410006F557F4FCB010E94D40DCF53DF4F2881E2
:10242000C15CD040CE53DF4F48815981C25CD0405F
:10243000BE016F557F4FCB010E94DC0A9601CA5343
:10244000DF4F48815981C65CD040BE016F557F4F38
:10245000CB010E94D40D9601A501BE016F557F4F9F
:10246000CB010E94D40D8E010F571F4F9401A5017F
:10247000B301C2010E94E90F9601AE014F555F4FB3
:10248000BE016F5F7F4FCE018F5B9F4F0E94B60FE3
:10249000CF53DF4F4881C15CD040BE016F5B7F4F9F
:1024A000C653DF4F88819981CA5CD0400E949C0549
:1024B000CF53DF4F4881C15CD040BE016F5F7F4F7B
:1024C000C653DF4F88819981CA5CD040820D931D2D
:1024D0000E949C05C353DF4FE2E10C947916692DED
:1024E000CE018F579F4F0E94F70481E090E0A0E05B
:1024F000B0E0CF57DF4F88839983AA83BB83C1584D
:10250000D040DECEB401C453DF4F88819981CC5CCA
:10251000D0400E94250521E030E0009770406040E7
:1025200009F020E0E0E23E9F302D2E9F202D312942
:102530001124F1E04F2E512C4C0E5D1E420E531E05
:10254000AE014F5B5F4F420F531FC853DF4F59839C
:102550004883C85CD04021E030E0672B682B692BB2
:1025600009F420E050E2359FB02C259FA02CB12823
:10257000112461E0662E712C6C0E7D1E6A0C7B1C92
:10258000CE018F5B9F4FA80EB91E76018E010F57AB
:102590001F4F9201C853DF4F48815981C85CD0401A
:1025A000B301C5010E9463109301A501B201C85394
:1025B000DF4F88819981C85CD0400E94E90F91E08B
:1025C000891A9108C6CEA6E4B0E0E9EEF2E10C94D7
:1025D000651627969FAF8EAF2797CB016A01BE0184
:1025E0006F5D7F4F23967FAF6EAF2397AE014F5F36
:1025F0005F4F25965FAF4EAF259796010E94AB08BF
:102600007B018C018091F4019091F501892BC1F03F
:10261000F701EE0FFF1FCE018F5B9F4FE80FF91FF1
:10262000A080B180F6014081B6016C5F7F4FC5018B
:102630000E94FF08892B31F480E090E0BC0128C0A3
:10264000A12CB12CF601828193810196F1E0EF2655
:10265000EE0CFF1CFE01EF5BFF4FEE0DFF1D4081F6
:102660005181B6016C5B7F4F76018C0195012796F5
:102670008EAD9FAD27970E940A11F6016081660F0B
:1026800027968EAD9FAD27970E940205F1E06F2738
:10269000CA5BDF4FEAE00C948116AFE8B0E0E3E5F7
:1026A000F3E10C945D16C657DF4F99838883CA58AF
:1026B000D040C457DF4F79836883CC58D040C2578D
:1026C000DF4F59834883CE58D0402901C857DF4F88
:1026D00019830883C858D04057017E0121E6E20ED5
:1026E000F11CCF57DF4FF982E882C158D0408E01EC
:1026F0000F5B1F4FCD57DF4F19830883C358D0405E
:10270000F501F081C957DF4FF883C758D0406F2FCC
:10271000C2010E940205CB57DF4FE882C558D04066
:10272000CA57DF4FF882C658D040672B682B692BF9
:1027300039F080E090E0C157DF4FE2E10C94791668
:10274000F501228033806101FFE1CF0ED11C1AF424
:102750002FE1C20ED11C45E0D594C7944A95E1F70C
:10276000450144E2840E911C4C2DB201C4010E942B
:102770009A068130F1F69501A801CB57DF4F6881A9
:10278000C558D040CA57DF4F7881C658D040C201E3
:102790000E94AB087B018C018091F4019091F501BE
:1027A000892B09F434C1F701EE0FFF1FCE018F57BB
:1027B0009F4FE80FF91F60807180C957DF4F488134
:1027C000C758D040B5016C5F7F4FC3010E94FF081E
:1027D000892B09F4AECFC1010196E1E0EE26EE0CA3
:1027E000FF1CFE01EF57FF4FEE0DFF1D4081518191
:1027F00075018C019301B5016C5B7F4F3E01FFEFCA
:102800006F1A7F0AC3010E940A11C957DF4F6881FE
:10281000C758D040C3010E940205F62C172D672B24
:10282000682B692B09F085CF8091F4019091F50117
:10283000892B09F0EFC06C2DCE018F599F4F0E945C
:10284000F70481E090E0A0E0B0E0A5968CAF9DAFEA
:10285000AEAFBFAFA5970C2D9401CB57DF4F48818A
:10286000C558D040CA57DF4F5881C658D040B20132
:10287000C2010E94A20D2C2DA401B201C2010E942E
:10288000DC0A9401CB57DF4F4881C558D040CA5766
:10289000DF4F5881C658D040B201C2010E94A20D3C
:1028A000F5016181762F770F770BAE014F5F5F4F98
:1028B000C857DF4F88819981C858D0400E946A0963
:1028C000F50182819381AC01495F5F4F12F4495F4A
:1028D0005F4F83E0559547958A95E1F7C657DF4FDF
:1028E00068817981CA58D040CB57DF4F8881C5585D
:1028F000D040CA57DF4F9881C658D0400E94A309E4
:10290000EC2DFC2DFF0FFF0B3197EE0FFF1FEE0F8D
:10291000FF1FCE018F5B9F4FE80FF91F10821182BE
:1029200012821382C957DF4F4881C758D0406F2D9C
:10293000712FCE018F5B9F4F0E949C050C2D94013F
:10294000AE014F5B5F4FCB57DF4F6881C558D0401A
:10295000CA57DF4F7881C658D040CA010E94A20DE5
:102960009501C257DF4F48815981CE58D040C45796
:10297000DF4F68817981CC58D040CB57DF4F8881B9
:10298000C558D040CA57DF4F9881C658D0400E94E2
:10299000F2099401AE014F5B5F4FCB57DF4F688167
:1029A000C558D040CA57DF4F7881C658D040CA01B9
:1029B0000E94B8069401A201BE016F5B7F4FCB015C
:1029C0000E94A20D6C2DCE018F5B9F4F0E94480587
:1029D000F5012181E22FF22FFF0FFF0B48E02402C7
:1029E00090011124281739070CF4A3CEAE014F5BD8
:1029F0005F4FBF01C857DF4F88819981C858D040C9
:102A00008E0F9F1F0E946A0981E090E094CE612C96
:102A1000712CE1CE4C2DB401CE018F599F4F0E94F5
:102A2000FF08892B09F017CF84CE8093F40190938F
:102A3000F501089584E091E00895A4E6B0E0E3E2B2
:102A4000F5E10C9465165C01A5967FAF6EAFA59776
:102A50008A01C12CD12C9A012C5D3F4FA3963FAF28
:102A60002EAFA397F80182819381AC01415E5F4F45
:102A700012F4415E5F4F95E0559547959A95E1F7C1
:102A8000A3966EAD7FADA397CE018F5B9F4F0E9443
:102A9000FF087C01892B09F450C0A801BE016F5BBF
:102AA0007F4FCE0101960E94E312672B682B692BA2
:102AB000E1F1F80182819381BC01695F7F4F12F4DB
:102AC000695F7F4F83E0759567958A95E1F7AE0161
:102AD0004F5B5F4FA5968EAD9FADA5970E946A098B
:102AE000F8016181762F770F770BAE014F5F5F4F53
:102AF000C5010E946A09F80181814081F4E04F021A
:102B0000A00111249E012F5F3F4F420F531F982FAA
:102B1000990F990BBC018A0D9B1D0E946A09C70180
:102B2000CC59DF4FEAE00C9481163FEFC31AD30A69
:102B300080E4C816D10409F095CFE12CF12CEFCF39
:102B4000AAE2B0E0E6EAF5E10C9465168BA39CA33B
:102B50006DA37EA34FA358A729A73AA75801C12C5C
:102B6000D12CC801849689A39AA3F501828193810F
:102B7000AC01415E5F4F12F4415E5F4F85E05595B9
:102B800047958A95E1F769A17AA1CE0101960E9445
:102B9000FF08892BB9F0750109A51AA59E012F5FC1
:102BA0003F4F4FA158A56DA17EA18BA19CA10E9472
:102BB0004D13009749F4FFEFCF1ADF0A80E4C816DF
:102BC000D10499F680E090E0AA96EAE00C94811690
:102BD000DB018F939F930E942716BF91AF91A29F15
:102BE000800D911DA39F900DB29F900D112408950B
:102BF00097FB072E16F4009407D077FD09D00E94AA
:102C0000B51607FC05D03EF4909581959F4F089529
:102C1000709561957F4F08950E94151684FF089561
:102C2000CB010E941516805F0895AA27992319F4F5
:102C3000982B59F0A85F903118F4AD5F9295A39549
:102C4000990FE8F78A2F9927089580E108950E9447
:102C5000A616A59F900DB49F900DA49F800D911D69
:102C600011240895E894DF93CF93FC01DB010E94C7
:102C7000A6167F936F93E9019A01AC01BF93AF93BE
:102C80003F932F93DF010E94A61626F46C1B7D0B49
:102C9000820B930B9E01EB01FC010E94C916AF91C0
:102CA000BF912F913F910E94C916BE01CF01F9013A
:102CB0002F913F91CF91DF9108952F923F924F92A4
:102CC0005F926F927F928F929F92AF92BF92CF92BC
:102CD000DF92EF92FF920F931F93CF93DF93CDB7C5
:102CE000DEB7CA1BDB0B0FB6F894DEBF0FBECDBF3D
:102CF00009942A88398848885F846E847D848C840E
:102D00009B84AA84B984C884DF80EE80FD800C8116
:102D10001B81AA81B981CE0FD11D0FB6F894DEBFF9
:102D20000FBECDBFED0108952A0D3B1D4C1D5D1D4D
:102D30006E1D7F1D801F911F08952A153B054C05B0
:102D40005D056E057F05800791070895A29FB0017C
:102D5000B39FC001A39F700D811D1124911DB29FCF
:102D6000700D811D1124911D0895AA1BBB1B51E1FB
:102D700007C0AA1FBB1FA617B70710F0A61BB70BEB
:102D8000881F991F5A95A9F780959095BC01CD0190
:102D900008950E94A616460F571FC81FD91F08F492
:102DA00031960895DC01CB01FC01F999FECF06C0F4
:102DB000F2BDE1BDF89A319600B40D9241505040F9
:102DC000B8F70895F999FECF92BD81BDF89A992779
:102DD00080B50895DC01CB0103C02D910E94F5164A
:102DE00041505040D0F70895262FF999FECF1FBAD1
:102DF00092BD81BD20BD0FB6F894FA9AF99A0FBE24
:082E000001960895F894FFCF3C
:102E0800785634120514A100FFFFFF7FFFFFFFFF74
:102E1800FFFFFFFFFFFFFFFFFFFFFFFF00000000B6
:102E28000000000000000000572275CAD3AE27F941
:102E3800C8F40100000000000000000001000000CC
:102E4800000000000000000082FCCB13B98BC368AF
:102E5800896964462873F58E68B5964A32FBC57A47
:102E68003751230412C9DC597D9468315528A623AB
:102E7800000000000000000000000000000000004A
:102E8800000000000000000045FA65C5ADD4D481FB
:102E98009FF8AC658B7ABD54FCBE971C00000000FF
:0E2EA8000000000000000000020E4B0FF50EAF
:00000001FF
