:100000000C9434000C9451000C9451000C94510049
:100010000C9451000C9451000C9451000C9451001C
:100020000C9451000C9451000C9451000C9451000C
:100030000C9451000C9451000C9451000C945100FC
:100040000C9451000C9451000C94CE010C9451006E
:100050000C9451000C9451000C9451000C945100DC
:100060000C9451000C94510011241FBECFEFD8E026
:10007000DEBFCDBF11E0A0E0B1E0ECE8FDE202C0E0
:1000800005900D92AE3AB107D9F721E0AEEAB1E0A2
:1000900001C01D92A63FB207E1F70E9471010C94C6
:1000A000C4160C9400001F93CF93DF93C4E1D0E0FB
:1000B000D115A9F00E94500212E38FE39CE9019749
:1000C000F1F700C000000E944702811559F00E941C
:1000D0005002C1E08C2FDF91CF911F9108950E94B3
:1000E0004E02EACF115049F781E0D827C15001F7FD
:1000F000F1CFAAE9B0E0EFE7F0E00C942F1664E14D
:1001000070E0CE0189589F4F0E94F601CE018958B8
:100110009F4F0E943D04811108C085E00E94B301F9
:10012000C656DF4FE2E00C944B160E94530081113B
:1001300002C086E0F3CFBE01665C7F4FCE018E59D0
:100140009F4F0E942303811102C082E0E7CFCE01BE
:1001500085579F4F0E944003AE014E595F4FBE012D
:1001600065577F4FCE0189589F4F0E94EF03198238
:1001700080E1FE01E557FF4FDE01129601900D92DE
:100180008A95E1F788E2FE01FA96DE015296019027
:100190000D928A95E1F769E370E0CE0101960E9425
:1001A000BA01BECFA7E9B0E0E8EDF0E00C942F165D
:1001B00064E170E0CE018D599F4F0E94F60164E129
:1001C00070E0CE01815B9F4F0E94F601CE018D59F8
:1001D0009F4F0E94A603C956DF4F8883C759D0405E
:1001E000813141F484E00E94B301C956DF4FE2E05F
:1001F0000C944B160E945300811102C086E0F3CF8D
:10020000AE01465C5F4FBE0169577F4FC956DF4F55
:100210008881C759D0400E944B04AE0149585F4FB6
:10022000BE01615B7F4FCE01CA960E9445038111DA
:1002300002C082E0D8CF198280E1FE01E957FF4F6A
:10024000DE01129601900D928A95E1F788E2FE0197
:10025000E958FF4FDE01529601900D928A95E1F721
:1002600069E370E0CE0101960E94BA01BECF0E9400
:100270005300811104C086E00E94B30108950E94DA
:100280007D0380E0F9CFA7E6B2E0E9E4F1E00C9469
:100290002F161982BE0169597D4FCE0103960E9427
:1002A0007104C959DD4F6881C756D2406A8384E220
:1002B000689FB00111246E5F7F4FCE0101960E94AE
:1002C000BA01C959DD4FE2E00C944B160E94880137
:1002D0000E944B020E9444020E94C4020E948D03AD
:1002E00008950E9466010E949F01823071F028F4F7
:1002F000811108C00E944301F6CF8330A1F70E940C
:100300003701F1CF0E947900EECF0E94D200EBCFEF
:1003100082E08093C0001092C50080E18093C40009
:1003200086E08093C20088E98093C10040E464EBDA
:1003300071E08EEA91E00E940A0278940895A1E0AB
:10034000B0E0E5EAF1E00C942F16BE016F5F7F4F3D
:100350008EEA91E00E942C028115B9F389812196E1
:10036000E2E00C944B169091C00095FFFCCF809377
:10037000C60008950F931F93CF93DF93EC018C0178
:10038000060F171FC017D10729F4DF91CF911F91D6
:100390000F91089589910E94B301F4CF1F920F929B
:1003A0000FB60F9211242F933F934F935F936F9348
:1003B0007F938F939F93AF93BF93EF93FF9360913E
:1003C000C6008EEA91E00E941202FF91EF91BF9168
:1003D000AF919F918F917F916F915F914F913F91DD
:1003E0002F910F900FBE0F901F9018950F931F9392
:1003F000CF93DF93EC018C01060F171FC017D107B5
:1004000029F4DF91CF911F910F9108950E949F01D0
:100410008993F4CFFC01608371831282138214826A
:1004200045830895FC0194818581981798F4838110
:10043000A081B181A80FB11D6C9383818F5F8383ED
:1004400094819F5F94839581891711F081E00895CD
:100450001382FCCF80E00895FC018481811599F01E
:100460008281A081B181A80FB11D8C91DB018C9399
:1004700082818F5F828394819150948395818913C7
:1004800001C0128281E0089552985A9A08958827EF
:100490004A9B83950895259A2D9808955C9A08950E
:1004A0005C980895A0E0B0E0E8E5F2E00C9429162D
:1004B000FC01EC01C60FD71FCE17DF0739F481E02E
:1004C00090E0CDB7DEB7E8E00C94451680917A0055
:1004D000806480937A0080917A0086FDFCCFE09062
:1004E0007800F0907900D6B40091840010918500D6
:1004F000C090B200209100013091010140910201B1
:10050000509103016DE67EE486EC91E40E94AA1509
:10051000DC01CB01875C9F4CAF4FBF4F4C2D4E256C
:1005200084279F25AD25A127902740E0582F692FCC
:100530007A2F25E0440F551F661F771F2A95D1F7A4
:1005400084279527A627B727AD0156954795842779
:100550009527AC01BD0125E0440F551F661F771F8D
:100560002A95D1F784279527A627B72780930001DE
:1005700090930101A0930201B0930301B1938AE12A
:100580008A95F1F700C098CF0F931F93CF93DF9315
:1005900082E085BD81E08093810086E08093B10098
:1005A00080E480937C0086E880937A00E0E220E09B
:1005B00030E0890180917A00806480937A00809194
:1005C0007A0086FDFCCFC0917800D091790066B5A5
:1005D00040918400509185008091B200B0E08C275A
:1005E0009D2FA62FA5279427AC016A2F40275127BE
:1005F0006227732F440F551F661F771F411DCFE8D9
:10060000D1E02197F1F700C00000E150C9F4801754
:100610009107A207B30719F46DEE7EE5AB01409395
:10062000000150930101609302017093030182E580
:1006300092E00E94D714DF91CF911F910F910895FE
:100640008A019B01B7CFA4E0B0E0E9E2F3E00C94AB
:100650002F1689839A836B837C830E94DC14AC0100
:1006600069817A818B819C810E94DF149C0181E0E9
:100670002130310509F080E02496E2E00C944B161D
:1006800060E170E00E9452020895A6E0B0E0EBE461
:10069000F3E00C942D1689839A836B837C834D83BE
:1006A0005E830E94DC148C012D813E8144E150E088
:1006B0006B817C8189819A810E9462159C0181E015
:1006C0002130310509F080E02696E4E00C944916CB
:1006D0000F931F93CF9300E010E0C0E0C8010E9489
:1006E000A4168F3F29F0CF5F075C1F4FC131B1F7D0
:1006F0008C2FCF911F910F910895CF93DF93C0E07E
:10070000D0E06FEFCE010E94B616E996C93C83E0B7
:10071000D807B9F7DF91CF91089589EC90E00E9456
:10072000A4168A3C31F48AEC90E00E94A4168E3F15
:1007300061F00E947D036AEC89EC90E00E94B6169D
:100740006EEF8AEC90E00E94B6160895AF92BF92C9
:10075000CF92DF92EF92FF921F93CF93DF93CDB7AB
:10076000DEB764970FB6F894DEBF0FBECDBF6C0145
:10077000E12CF12C10E05C0184E1A80EB11CC70152
:100780000E94A4168F3F21F144E150E0B701CE0151
:1007900001960E949416DE011196F6019C918081CB
:1007A000981316C011963196EA15FB05B9F7812FFB
:1007B00064960FB6F894DEBF0FBECDBFDF91CF9128
:1007C0001F91FF90EF90DF90CF90BF90AF90089572
:1007D0001F5F89E3E80EF11C113189F6E8CFA8E02C
:1007E000B0E0E5EFF3E00C942F1689839A836B83D6
:1007F0007C834D835E830E94A6038131F1F099E3EF
:10080000899F9001112429833A83B9016C5E7F4F3F
:1008100040E150E08B819C810E94AC1669817A8115
:100820006C5D7F4F45E150E08D819E810E94AC164A
:1008300081E02896E2E00C944B160E946803813117
:10084000D1F099E3899F900111242F83388744E1E7
:1008500050E0B90189819A810E94AC166F81788538
:100860006C5E7F4F40E150E08B819C810E94AC1612
:100870006F817885D5CF80E0DCCF0E94A6038131DF
:1008800041F40E94680391E0813109F490E0892FDE
:10089000089581E00895A4E0B0E0E1E5F4E00C946F
:1008A0002F168B83CB0149835A832B8149E3249FE5
:1008B000900111242B833C83B9016C5E7F4F40E192
:1008C00050E00E9494166B817C816C5D7F4F45E106
:1008D00050E089819A810E9494162496E2E00C945B
:1008E0004B16CF92DF92EF92FF921F93CF93DF933D
:1008F00000D000D0CDB7DEB76C0169837A831B824C
:100900001C8210E08B819C810E94A4168F3FD1F045
:1009100024E2129F7001112440E150E06B817C8140
:100920006C5E7F4FC6018E0D9F1D0E949416C701FD
:10093000409644E150E06B817C818C0D9D1D0E94AE
:1009400094161F5F8B819C81C9968B839C83893C05
:100950009340C1F6E981FA8110830F900F900F90B8
:100960000F90DF91CF911F91FF90EF90DF90CF908C
:100970000895FC0180E086170CF008951192119201
:10098000119211928F5FF7CFCF92DF92EF92FF9289
:10099000FC0180E040E050E09A01861774F061E0CD
:1009A00070E080E090E0232B242B252B09F060E001
:1009B000FF90EF90DF90CF900895C190D190E1909B
:1009C000F1902C293D294E295F298F5FE6CF9B01AD
:1009D00045E0359527954A95E1F7220F331F220F01
:1009E000331FFC01E20FF31F9B012F7161E070E0E8
:1009F00080E090E004C0660F771F881F991F2A953A
:100A0000D2F7208131814281538162237323842371
:100A100095230895CF92DF92EF92FF926150762F47
:100A2000770F770B67FD12C09B0121503109F90147
:100A3000EE0FFF1FEE0FFF1FE80FF91FC480D580D8
:100A4000E680F780CD28CE28CF2879F16F5F99F125
:100A5000262F660F330BA9014150504C440F551FF0
:100A6000440F551F840F951FFC01608171818281A5
:100A70009381009770406040D1F00E94CE1540E213
:100A800050E0BA01681B790BCB012150310940E2DB
:100A9000349F302D249F202D31291124820F931F44
:100AA000FF90EF90DF90CF900895B901BBCFA0E009
:100AB000B0E0CD01EACF80E090E0F2CF0F931F933A
:100AC000FB01DC0180E084171CF01F910F91089559
:100AD00001911191219131910D931D932D933D938E
:100AE0008F5FF1CFCF92DF92EF92FF92CF93DF93A0
:100AF000FC014150542F550F550B47FF08C080E0B3
:100B0000DF91CF91FF90EF90DF90CF9008959A0101
:100B1000220F331F220F331FDF01A20FB31FCD900F
:100B2000DD90ED90FD90260F371FE90188819981B6
:100B3000AA81BB818C159D05AE05BF0548F04150CB
:100B40005109C816D906EA06FB06B8F68FEFD8CFCA
:100B500081E0D6CFCF92DF92EF92FF920F931F9357
:100B600024E06202F0011124E80FF91F20E030E0D8
:100B700089018E179F0738F01F910F91FF90EF901A
:100B8000DF90CF900895F290E290D290C290A601AB
:100B9000B7017695679557954795402B512B622B5A
:100BA000732B4083518362837383C0FA332737F9F1
:100BB00020E000E010E0DDCFA3E0B0E0E2EEF5E001
:100BC0000C94251629835C01DB014A0140E080E09A
:100BD00090E0BC01F9814F1724F02396ECE00C94CF
:100BE0004116CD90DD90ED90FD90F40101911191B1
:100BF000219131914F010C0D1D1D2E1D3F1D060F22
:100C0000171F281F391FC016D106E206F30659F038
:100C100051E00C151D052E053F0508F050E0652F2D
:100C200070E080E090E0F5010193119321933193FE
:100C30005F014F5FCFCFA3E0B0E0E1E2F6E00C94BC
:100C4000211629833C01DB012A0140E080E090E08D
:100C5000BC01F9814F1724F02396E0E10C943D1676
:100C6000CD90DD90ED90FD90F20181909190A1905A
:100C7000B1902F0186019701061B170B280B390B2A
:100C8000081919092A093B09C016D106E206F3061C
:100C900059F051E0C016D106E206F30608F050E024
:100CA000652F70E080E090E0F301019311932193B0
:100CB00031933F014F5FCDCFA2E2B0E0E2E6F6E034
:100CC0000C942F1649A3242FAB01BC01CE01019631
:100CD0000E941B066AA369A1CE0101960E94C4046A
:100CE000862F21E082272AA1220F821BA296E2E012
:100CF0000C944B160F93CF93DF9300D000D0CDB759
:100D0000DEB78B839C8329833A83202F0E94DC05E6
:100D1000672B682B692B49F4402F6B817C8189817B
:100D20009A810E947205813041F0202F49815A81B9
:100D30006B817C81CB010E941B060F900F900F905E
:100D40000F90DF91CF910F910895A4E9B0E0EBEA05
:100D5000F6E00C941F16C257DF4F99838883CE5854
:100D6000D0404A01CB57DF4F2883C558D040CE0131
:100D70000196CF57DF4F99838883C158D040CD5714
:100D8000DF4F79836883C358D040E22EF22EFF0CE8
:100D9000FF08622FCA010E940A05CB57DF4F288146
:100DA000C558D04030E4230210011124281A390A12
:100DB000810137FE02C0015E1F4F65E01595079562
:100DC0006A95E1F770E2A72EB12CC101B5010E942E
:100DD000BA156C01602FCE018F5B9F4F0E94B90442
:100DE0001C140CF089C0D40144E00402F001112469
:100DF000BE016F5B7F4FE60FF71F80E090E02C0194
:100E0000320191012F71A5014C19C42E8E159F0539
:100E100009F050C06701CC0CDD1CC657DF4FD982EA
:100E2000C882CA58D040C701880F991F880F991FE0
:100E300021E4C22ED12CCC0EDD1EC80ED91ECA57FD
:100E4000DF4FD982C882C658D040A12CB12C4501B1
:100E5000839421E0E21AF108EE0CFF1CEE0CFF1C5B
:100E600051E4C52ED12CCC0EDD1ECE0CDF1CC85794
:100E7000DF4FD982C882C858D04037FE0BC1880CDA
:100E8000991CFE01EF57FF4FE80DF91D608171813C
:100E9000CB57DF4F4881C558D040C257DF4F8881BC
:100EA0009981CE58D0400E945E05CC56DF4FE2E1DA
:100EB0000C943B168D909D90AD90BD90A401B50112
:100EC000022E04C0440F551F661F771F0A94D2F7E5
:100ED0004429552966297729419351936193719348
:100EE000240135010C2C04C07694679457944794E0
:100EF0000A94D2F701968ACF54E00502C00111246A
:100F0000CB57DF4F4881C558D040B401DE01AF5BFD
:100F1000BF4F8A0F9B1F0E945E057CCFCC56DF4FD0
:100F20008881C459D04094E0890290011124C457AB
:100F3000DF4FA881B981CC58D0408D919D91FC01A3
:100F4000E20FF31F4080518062807380FE01EF5BEF
:100F5000FF4FE20FF31F80819181A281B3816C0169
:100F60007D01C40ED51EE61EF71EC201D3018C19E9
:100F70009D09AE09BF09C057DF4F88839983AA83B3
:100F8000BB83C059D040481659066A067B0699F0C3
:100F900081E0C057DF4FC880D980EA80FB80C0590C
:100FA000D0404C145D046E047F0408F080E0482FAC
:100FB00050E060E070E0D8018D919D91820F931F09
:100FC000C057DF4FC880D980EA80FB80C059D0402D
:100FD000DC01CD92DD92ED92FD92CC56DF4FB881CF
:100FE000C459D040BF5FCC56DF4FB883C459D040FE
:100FF000CC56DF4F2881C459D040C657DF4FE88018
:10100000F980CA58D040022E001C00082E150F048B
:101010000CF484CF81E084169506A606B70609F085
:1010200080E0882E912CA12CB12CCB57DF4F68810A
:10103000C558D040CE018F5B9F4F0E94AA05CA576A
:10104000DF4FE881F981C658D040808180FBBB2703
:10105000B7F9C857DF4FE881F981C858D0404081BF
:10106000518162817381CA01B72B8083918362832E
:10107000B383CB57DF4F6881C558D040CA57DF4F85
:1010800088819981C658D0400E94AA05F1E02F1AA4
:101090003108F3CECC56DF4F1882C459D04040E01F
:1010A00050E0BA01C401880F991FFE01EF57FF4FAE
:1010B000E80FF91FC457DF4FF983E883CC58D040BD
:1010C0008401F1E00F27000F111FF1E8CF2ED12C82
:1010D000CC0EDD1E0C0D1D1D8BCFA4E0B0E0E3E7B0
:1010E000F8E00C9429166B0149835A83F9010280B8
:1010F000F381E02DEB83FC838F01015E1F4F12F41F
:10110000015E1F4F45E0159507954A95E1F72C5D67
:101110003F4F7901202FA701BC01C6010E94DC05C9
:10112000672B682B692B31F520E20202C0011124E4
:101130004B815C81481759070CF5BA01C6010E9422
:10114000E70421E0672B682B692B09F420E02B834F
:101150001C82202FA701B60189819A810E94DC059B
:10116000EB81FC81BF01FF0F880B982F2496E8E0EC
:101170000C94451681E08B831C82EBCF1B821C8272
:10118000E8CFA5E0B0E0E7ECF8E00C9425168C0180
:101190006A837B8349838091F4019091F501892BC7
:1011A00031F480E090E02596ECE00C9441166981E2
:1011B0008A819B810E940A05298134E02302600113
:1011C0001124A60144505109400F511F4C835D83E7
:1011D00050E2250290011124281BE12CF12C8FEF05
:1011E000B82EAB2C450104C0B694A794979487946D
:1011F0002A95D2F7E091F401F091F501B601C8010A
:101200000995892B71F2EC81FD8180819181A28108
:10121000B38188219921AA21BB2180839183A28354
:10122000B3836981C8010E94C404672B682B692BB2
:1012300041F44981B8018A819B810E945C0681301A
:1012400041F0FFEFEF1AFF0A20E4E216F10491F6F5
:10125000A8CF81E090E0A7CFA4E0B0E0E2E3F9E01E
:101260000C942B16DB014B835C839B017C0180E09B
:1012700090E08A179B0724F02496E6E00C9447162A
:1012800021503109B9016C7F0B811C81600F711FE6
:10129000422F437050E0FA0143E0EE0FFF1F4A95E2
:1012A000E1F7E983FA83FB01408151816281738117
:1012B000098004C076956795579547950A94D2F7AB
:1012C000F70141937F010196D4CFA0E0B0E0EBE6B7
:1012D000F9E00C9425168C017B01EA01BA016D5FDF
:1012E0007F4F12F46D5F7F4F759567957595679584
:1012F000C8010E94B9049E01470160E070E06C17CC
:101300007D072CF0CDB7DEB7ECE00C9441162150F0
:101310003109A9014C7F5A01A00EB11EF40181913F
:101320004F0190E0A0E0B0E0E22EF3E0EF22F12CDC
:1013300043E0EE0CFF1C4A95E1F704C0880F991FAB
:10134000AA1FBB1FEA94D2F7F501C080D180E280CA
:10135000F3808C299D29AE29BF2980839183A283A4
:10136000B3836F5F7F4FCBCFA0E0B0E0EAEBF9E053
:101370000C9421166C014B017901F901A280B38014
:101380008501015E1F4F12F4015E1F4F35E0159578
:1013900007953A95E1F7E50127960AF4279623E0A9
:1013A000D595C7952A95E1F74C175D0708F4EA0132
:1013B000602FC6010E94B904AE01B401C6010E94AB
:1013C000650993E0CC0FDD1F9A95E1F7AC16BD06D9
:1013D00010F5CA19DB09F801EE0FFF1FEE0FFF1F12
:1013E000EC0DFD1D612C712C230180E290E08C1B23
:1013F000CE16DF06A8F084E2E80EF11C402FB601FD
:10140000C7010E947205813031F0202FA701B6017B
:10141000C6010E941B06CDB7DEB7E0E10C943D1675
:10142000B290A29092908290A401B5010C2E04C0BB
:1014300076956795579547950A94D2F7442955298B
:1014400066297729408351836283738324013501A0
:10145000082E04C0440C551C661C771C0A94D2F755
:10146000C7CF0F93CF93DF9300D000D0CDB7DEB7B7
:101470008B839C8329833A83202F0E941B06672B32
:10148000682B692B41F0202F49815A816B817C8127
:10149000CB010E94DC050F900F900F900F90DF9111
:1014A000CF910F910895CF92DF92EF92FF92CF9359
:1014B000DF9300D00F92CDB7DEB78A839B83498339
:1014C000FC0180819181A281B38180FBCC24DD2449
:1014D0007601C0F880FF08C0242FAB01BF01CF0107
:1014E0000E94DC056B017C0169818A819B810E94DD
:1014F000AA05CD28CE28CF28B9F08981E82F880FFA
:10150000FF0BE150F04CEE0FFF1FEE0FFF1F8A8123
:101510009B81E80FF91F80819181A281B381B0681E
:1015200080839183A283B3830F900F900F90DF91FC
:10153000CF91FF90EF90DF90CF900895A5E8B0E0B5
:10154000E4EAFAE00C942916CD57DF4F998388839B
:10155000C358D0407B018A01CF57DF4F2883C15841
:10156000D040622FC7010E94C404672B682B692BEF
:1015700091F0CF57DF4F6881C158D040CD57DF4F32
:1015800088819981C358D0400E94B904CB57DF4F5E
:10159000E8E00C944516CF57DF4F4881C158D04042
:1015A000B701CE018F599F4F0E945E05CF57DF4F85
:1015B0004881C158D040B801CE018F5B9F4F0E9437
:1015C0005E056E0181E2C80ED11CCF57DF4F6881E6
:1015D000C158D040C6010E94B90481E089A31AA273
:1015E0001BA21CA2CF57DF4F6881C158D0407E019B
:1015F0008FEFE81AF80AC7010E94B904CB57DF4FF2
:10160000D882C558D040DE2CCF57DF4F4881C15813
:10161000D040BE016F5B7F4FCE018F599F4F0E941C
:101620007205811114C0CF57DF4F4881C158D04097
:101630006C2DCB57DF4F7881C558D040CD57DF4F49
:1016400088819981C358D0400E945E059FCFA5969E
:101650004CAD5DAD6EAD7FADA59740FD19C0CF57C8
:10166000DF4F6881C158D040CE018F599F4F0E94F3
:10167000AA05CF57DF4F4881C158D040B8018C2D03
:10168000CB57DF4F9881C558D0400E94530ABCCF3A
:1016900025964CAD5DAD6EAD7FAD259740FD13C079
:1016A000CF57DF4F6881C158D040CE018F5B9F4F2D
:1016B0000E94AA05CF57DF4F4881C158D040B801DA
:1016C0008D2D9F2DE2CFCF57DF4F2881C158D040BD
:1016D000AE01813009F045C04F5B5F4FBE016F59CD
:1016E0007F4FCB010E941B06CF57DF4F6881C15847
:1016F000D040CE018F599F4F0E94AA05CF57DF4F90
:101700004881C158D0406D2D7F2D8C2DCB57DF4F98
:101710009881C558D0400E9472058F3F81F4CF5701
:10172000DF4F2881C158D040A8016C2DCB57DF4F27
:101730007881C558D0408C2D972F0E94DC05CF575B
:10174000DF4F2881C158D0404D2D5F2D6C2DCB57D8
:10175000DF4F7881C558D0408C2D972F0E941B06F3
:1017600088CF4F595F4FBE016F5B7F4FCB010E9407
:101770001B06CF57DF4F6881C158D040CE018F5B29
:101780009F4F0E94AA05CF57DF4F4881C158D040D4
:101790006C2DCB57DF4F7881C558D0408D2D9F2DB4
:1017A0000E9472058F3F61F4CF57DF4F2881C158E7
:1017B000D040A8016D2D7F2D8D2D9F2D0E94DC0521
:1017C000CF57DF4F2881C158D0404C2DCB57DF4F2A
:1017D0005881C558D0406D2D7F2D8D2D9F2D0E9495
:1017E0001B0668CFAAE2B0E0E8EFFBE00C941F16FE
:1017F0008A8F9B8F6C8F7D8F4E8F5F8F2A871C0106
:101800004C5F5F4F4A01612C712C23016201720110
:101810001982B981EA85BE174CF18E2F880F990B7A
:101820009C012150310928A339A331E03D832E2E9C
:101830002A948D81820DE8A1F9A1082E001C0008D0
:101840008E170F060CF49EC0FA8528E0F202C00144
:1018500011244A8D5B8D840F951FFC01F292E29258
:10186000D292C292AA96E2E10C943B164C8D5D8D09
:101870004B875C878D869E861E821F8218861986FE
:101880001D82AB85BC852D913D914D915D91AB87BE
:10189000BC87ED85FE859291829172916291ED8770
:1018A000FE870E94F4152F87388B498B5A8B6B8BE0
:1018B0007C8B8D8B9E8B9201A3013BA36CA25DA3BD
:1018C0001EA21FA218A619A6C301B201AC2CBD2CE2
:1018D0006701E42CF72E192F2F85388949895A89F9
:1018E0006B897C898D899E89062D0E9456162AA3B4
:1018F0003AA7F42FE52FDB01898F98A34424439462
:10190000512C612C712CAF84B888C988DA88EB8897
:10191000FC880D891E890E945F1608F0412C4E81BB
:101920005F8168857985440D551D661D771D4E8341
:101930005F8368877987898D98A100E29D01AC015A
:101940002D013A01CAA0DAA4EF2EFE2E6D816F5F41
:101950006D83798176170CF094CFD101CD92DD9211
:10196000FD93EC9384E0280E311C99819F5F99834D
:10197000A4E08A0E911C69017A014E805F80688420
:10198000798447CF4D81542F550F550B4E835F837C
:1019900094E08902B00111246B877C8742015301D6
:1019A000612C712C23017E818A85781784F0EA8D61
:1019B000FB8DAB85BC85EA0FFB1FC082D182E28222
:1019C000F382BD81BF5FBD836401750132CF6CEFCF
:1019D0004E815F8164039001659F300D1124EC8D71
:1019E000FD8DE21BF30B6081718182819381AB8558
:1019F000BC852A0F3B1FEE8DFF8DE20FF31F208168
:101A00003181428153810E94F4152D873F87488B95
:101A1000598B6A8B7B8B8C8B9D8B9401A5018AA241
:101A20003BA3ACA25DA31EA21FA218A619A6C501C6
:101A3000B401AC2CBD2C6701E82CF72EE42F192F34
:101A40002D853F85488959896A897B898C899D893B
:101A50000E2F0E945616B22FA32FF42FE52F6E8B58
:101A60007F8B888F998F31E039831A821B821C8289
:101A70002B2F3A2F4F2F5E2FAD84BF84C888D98873
:101A8000EA88FB880C891D890E945F1608F019827C
:101A900049815A816B817C81440E551E661E771EDA
:101AA0006E897F89888D998D00E29B01AC01490187
:101AB0005A01CB2EDA2EEF2EFE2E6E817F816F5FC4
:101AC0007F4F6E837F836FCF0F93CF93DF93CDB71D
:101AD000DEB7C454D1090FB6F894DEBF0FBECDBF38
:101AE00023969FAF8EAF239725963FAF2EAF2597B6
:101AF000202FCE0101960E94F20B202F25964EAD8D
:101B00005FAD2597BE016F5F7F4F23968EAD9FAD72
:101B100023970E94A506CC5BDF4F0FB6F894DEBF7B
:101B20000FBECDBFDF91CF910F910895A3E4B0E038
:101B3000ECE9FDE00C942D1624969FAF8EAF249710
:101B40008901F901F0812296FFAF22972F2FCE0154
:101B500001960E94F20BA8014C5F5F4F22962FADB9
:101B60002297BE016F5F7F4F24968EAD9FAD249765
:101B70000E94A506CD5BDF4FE4E00C9449169A0164
:101B8000AB010E94960D0895A4E4B0E0EAECFDE0FC
:101B90000C941F166C013B017A014901F901108177
:101BA000612FCA010E94C404672B682B692B09F0BE
:101BB000D4C02E01F1E24F0E511CA401B301C201A9
:101BC0000E94BF0D9401A201B6011E018FEF281AD9
:101BD000380AC1010E94960DA401B201C2010E94FF
:101BE000BF0D9401A701B301C3010E94960DA4018A
:101BF000B701C7010E94BF0D5401E4E0AE0EB11C55
:101C0000012F9501A701B601C6010E947A06950130
:101C1000A701B701C7010E947A069501A701B60185
:101C2000C7010E94310A9401A701B601C6010E94B2
:101C3000960D9501A601B601C7010E947A0695018D
:101C4000A701B601C6010E947A06F6018081918142
:101C5000A281B38123964FAE239724965FAE24973B
:101C600025962FAE259722963FAE229780FF7AC009
:101C7000212FA501B601C6010E94DC051B012C0124
:101C8000612FC6010E94AA05E12FF12FFF0FFF0B64
:101C9000E150F04CEE0FFF1FEE0FFF1FEC0DFD1D8E
:101CA00020FA772777F980819181A281B381B72BC0
:101CB00080839183A283B383A401B601C7010E94EC
:101CC000BF0D012F950125964FAD259722965FAD4B
:101CD0002297B701C7010E94310A950125964FADA1
:101CE000259722965FAD2297B701C7010E94310A5E
:101CF0009501A70125966FAD259722967FAD229776
:101D0000CB010E94310A940125964FAD259722966A
:101D10005FAD2297B601C6010E94960D95012396EC
:101D20004FAD239724965FAD2497B601CA010E9458
:101D3000310A412FB701C6010E945E05412FB30150
:101D4000C7010E945E05412F23966FAD239724960D
:101D50007FAD2497C3010E945E05CC5BDF4FE2E1BB
:101D60000C943B16612FC6010E94AA05A5CFAF9225
:101D7000BF92CF92DF92EF92FF920F93CF93DF93B8
:101D8000CDB7DEB7A3970FB6F894DEBF0FBECDBFB9
:101D90007C016AA37BA36A01FE0135968CE1DF0119
:101DA0001D928A95E9F783E089831A821B821C823F
:101DB000FA01F081F9A36AA17BA1C7010E94BF0DBE
:101DC000560184E0A80EB11C09A19501AE014F5F38
:101DD0005F4FB701C7010E94310A96014AA15BA17A
:101DE000B701C7010E94960DA6014C575F4F09A18C
:101DF0009501B701C7010E947A06A3960FB6F89421
:101E0000DEBF0FBECDBFDF91CF910F91FF90EF905E
:101E1000DF90CF90BF90AF900895A3E4B0E0E3E1EE
:101E2000FFE00C94291624969FAF8EAF24976B0188
:101E30002CE1FE01B596DF01822F1D928A95E9F70C
:101E400081E089A31AA21BA21CA2AE014B5F5F4FC7
:101E5000FA0111922A95E9F789831A821B821C8262
:101E6000DB01BC912296BFAF22977E01E1E2EE0E2C
:101E7000F11C6C5F7F4F2B2FA701C7010E94DC056F
:101E800022966FAD2297C7010E940A058C0101506E
:101E90001109023011058CF422964FAD2297BE0134
:101EA0006F5F7F4F24968EAD9FAD24970E945E0595
:101EB000CD5BDF4FE8E00C944516A601BE016F5FD5
:101EC0007F4FCB010E94BF0DB801C7010E94E704FC
:101ED000672B682B692BD9F2960124964EAD5FAD26
:101EE0002497BE016F5F7F4FCB010E94960DCFCF2D
:101EF000A6E2B0E0EEE7FFE00C942D1689A39AA3CA
:101F00006BA37CA34DA35EA38901A9016DA17EA152
:101F1000CE0101960E94BF0D9801AE014F5F5F4F49
:101F200069A17AA1CB010E94960D98014DA15EA1F5
:101F3000BE016F5F7F4FCB010E94960D9801AE01ED
:101F40004F5F5F4F6BA17CA1CB010E94960DA696BF
:101F5000E4E00C944916A2E2B0E0E1EBFFE00C945F
:101F600021164C012B016A01590109A31AA3F7019B
:101F700010813701F4E06F0E711C012F9301AC0149
:101F8000B601CE0101960E94310AA701BE016F5F22
:101F90007F4FCB010E94BF0D9701AE014F5F5F4F96
:101FA000B401C4010E94960D9701AE014F5F5F4FCF
:101FB000B601C6010E94960D9301A201B501C501AB
:101FC0000E94310AA701B501CE0101960E94BF0D02
:101FD0009301A401BE016F5F7F4FCB010E94310AC4
:101FE0009301A601BE016F5F7F4FCB010E94310AB2
:101FF0009301A401B601C6010E94310A9701A6010E
:10200000B201C2010E94960D9301AE014F5F5F4F76
:10201000B40189A19AA10E94310A970149A15AA14C
:10202000B501C5010E94960D9301A201B501C5013C
:102030000E94310A412FBE016F5F7F4FC6010E948F
:102040005E05A296E0E10C943D16A0E6B0E0EBE25E
:10205000F0E10C9421164C012B015A016901B801E1
:102060003701F7011081A701CE018F5B9F4F0E94BE
:10207000BF0D9701AE014F5B5F4FB401C4010E94D9
:10208000960D9701AE014F5B5F4FB501C5010E94F0
:10209000960DF4E0EF0EF11C012F9701A201B6019D
:1020A000CE018F5B9F4F0E947A069701A201B60175
:1020B000C6010E94310A9701A401B501CE018196A3
:1020C0000E94310A9301AE014F5D5F4FB201C20120
:1020D0000E94960D9701A501B401CE0181960E9440
:1020E0007A06A301B601C5010E94BF0D9701AE019A
:1020F0004F5D5F4FB501C5010E94310A9701A501EF
:10210000B401CE0101960E94310A9301AE014F5FE6
:102110005F4FB601C6010E94960D9701A201B6015C
:10212000C6010E94310AA301BE016F5B7F4FCE0141
:1021300001960E94BF0D9701AE014F5D5F4FBE013A
:102140006F5F7F4FCB010E94310A9701A401BE014E
:102150006F5F7F4FCE0181960E94310A9301AE01DD
:102160004F5B5F4FBE016F5D7F4FCB010E94960DAD
:102170009701A201BE016F5D7F4FC2010E94310A2B
:10218000412FBE016F5F7F4FC4010E945E05C05AA0
:10219000DF4FE0E10C943D16ADECB0E0E2EDF0E194
:1021A0000C941F16C653DF4F99838883CA5CD040B6
:1021B000CC53DF4F79836883C45CD040C453DF4F76
:1021C00059834883CC5CD040590138016701F7013D
:1021D000F081CF53DF4FF883C15CD0407E0121E610
:1021E000E20EF11C4F2FC7010E945E05CF53DF4F57
:1021F0003881C15CD04044E0340210011124CC533A
:10220000DF4F88819981C45CD040820D931DCA53F1
:10221000DF4F99838883C65CD0408E010F5D1F4FCE
:10222000432FBC01C8010E945E05F6019080A114F5
:10223000B10409F416C1492DB501CE018F579F4F46
:102240000E945E05492DB701CE018F5B9F4F0E9412
:102250005E05492DB801CE0101960E945E059601EA
:10226000AE014F575F4FB801C7010E94780FF601CA
:10227000EC55FF4F0190F081E02D9601AE014F57D4
:102280005F4FB801C70109959601AE014F575F4FE7
:10229000BE016F5F7F4FCE018F5B9F4F0E94780F13
:1022A00096012C5F3F4FCE53DF4F39832883C25CAA
:1022B000D040CF53DF4F0881C15CD040A701BE01A1
:1022C0006F5B7F4FCE018F579F4F0E94310A4301B2
:1022D00032E0831A9108181419040CF4D5C0C453C1
:1022E000DF4FE881F981CC5CD0408081817090E043
:1022F000AC01F1E04F275195419551094072442EB0
:102300005524712C6F2E6C0E7D1E640C751C9E0165
:102310002F5B3F4F420E531E91958195910980721C
:10232000A82EBB24912C8F2E8C0E9D1E8A0C9B1CDC
:10233000A20EB31E76018E010F571F4F9301A2010B
:10234000B401C5010E942510CF53DF4F0881C15C45
:10235000D040CE53DF4F28813981C25CD040AE01DE
:102360004F5B5F4FBE016F597F4FCE018F559F4F1F
:102370000E94310A9601A401BE016F557F4FCB0127
:102380000E94960D9601CC53DF4F48815981C45C61
:10239000D040BE016F557F4FCB010E94960DCF53A9
:1023A000DF4F2881C15CD040CE53DF4F4881598137
:1023B000C25CD040BE016F557F4FCB010E949E0A88
:1023C0009601CA53DF4F48815981C65CD040BE0197
:1023D0006F557F4FCB010E94960D9601A501BE015E
:1023E0006F557F4FCB010E94960D8E010F571F4FE7
:1023F0009401A501B301C2010E94AB0F9601AE0189
:102400004F555F4FBE016F5F7F4FCE018F5B9F4F78
:102410000E94780FCF53DF4F4881C15CD040BE018E
:102420006F5B7F4FC653DF4F88819981CA5CD04074
:102430000E945E05CF53DF4F4881C15CD040BE0192
:102440006F5F7F4FC653DF4F88819981CA5CD04050
:10245000820D931D0E945E05C353DF4FE2E10C9491
:102460003B16692DCE018F579F4F0E94B90481E022
:1024700090E0A0E0B0E0CF57DF4F88839983AA8334
:10248000BB83C158D040DECEB401C453DF4F888136
:102490009981CC5CD0400E94E70421E030E00097B5
:1024A0007040604009F020E0E0E23E9F302D2E9F1A
:1024B000202D31291124F1E04F2E512C4C0E5D1EA0
:1024C000420E531EAE014F5B5F4F420F531FC85366
:1024D000DF4F59834883C85CD04021E030E0672B50
:1024E000682B692B09F420E050E2359FB02C259F22
:1024F000A02CB128112461E0662E712C6C0E7D1E7B
:102500006A0C7B1CCE018F5B9F4FA80EB91E760113
:102510008E010F571F4F9201C853DF4F48815981D9
:10252000C85CD040B301C5010E9425109301A501EC
:10253000B201C853DF4F88819981C85CD0400E94A6
:10254000AB0F91E0891A9108C6CEA6E4B0E0EBEAA1
:10255000F2E10C94271627969FAF8EAF2797CB01F9
:102560006A01BE016F5D7F4F23967FAF6EAF2397E9
:10257000AE014F5F5F4F25965FAF4EAF2597960137
:102580000E946D087B018C018091F4019091F5010E
:10259000892BC1F0F701EE0FFF1FCE018F5B9F4F1C
:1025A000E80FF91FA080B180F6014081B6016C5F91
:1025B0007F4FC5010E94C108892B31F480E090E073
:1025C000BC0128C0A12CB12CF60182819381019617
:1025D000F1E0EF26EE0CFF1CFE01EF5BFF4FEE0D6E
:1025E000FF1D40815181B6016C5B7F4F76018C01EC
:1025F000950127968EAD9FAD27970E94CC10F601CE
:102600006081660F27968EAD9FAD27970E94C40408
:10261000F1E06F27CA5BDF4FEAE00C944316AFE8A6
:10262000B0E0E5E1F3E10C941F16C657DF4F998344
:102630008883CA58D040C457DF4F79836883CC5809
:10264000D040C257DF4F59834883CE58D04029012C
:10265000C857DF4F19830883C858D04057017E01FF
:1026600021E6E20EF11CCF57DF4FF982E882C15814
:10267000D0408E010F5B1F4FCD57DF4F198308836A
:10268000C358D040F501F081C957DF4FF883C758D0
:10269000D0406F2FC2010E94C404CB57DF4FE882A5
:1026A000C558D040CA57DF4FF882C658D040672B74
:1026B000682B692B39F080E090E0C157DF4FE2E1F1
:1026C0000C943B16F501228033806101FFE1CF0EAF
:1026D000D11C1AF42FE1C20ED11C45E0D594C79449
:1026E0004A95E1F7450144E2840E911C4C2DB2015C
:1026F000C4010E945C068130F1F69501A801CB5718
:10270000DF4F6881C558D040CA57DF4F7881C6581F
:10271000D040C2010E946D087B018C018091F401C0
:102720009091F501892B09F434C1F701EE0FFF1FD9
:10273000CE018F579F4FE80FF91F60807180C957F6
:10274000DF4F4881C758D040B5016C5F7F4FC30150
:102750000E94C108892B09F4AECFC1010196E1E0C6
:10276000EE26EE0CFF1CFE01EF57FF4FEE0DFF1D96
:102770004081518175018C019301B5016C5B7F4FE4
:102780003E01FFEF6F1A7F0AC3010E94CC10C957A8
:10279000DF4F6881C758D040C3010E94C404F62CA3
:1027A000172D672B682B692B09F085CF8091F401D9
:1027B0009091F501892B09F0EFC06C2DCE018F5956
:1027C0009F4F0E94B90481E090E0A0E0B0E0A596A0
:1027D0008CAF9DAFAEAFBFAFA5970C2D9401CB577B
:1027E000DF4F4881C558D040CA57DF4F5881C6587F
:1027F000D040B201C2010E94640D2C2DA401B2018F
:10280000C2010E949E0A9401CB57DF4F4881C558F0
:10281000D040CA57DF4F5881C658D040B201C201DC
:102820000E94640DF5016181762F770F770BAE0161
:102830004F5F5F4FC857DF4F88819981C858D0409C
:102840000E942C09F50182819381AC01495F5F4FA1
:1028500012F4495F5F4F83E0559547958A95E1F7FC
:10286000C657DF4F68817981CA58D040CB57DF4FB8
:102870008881C558D040CA57DF4F9881C658D0408C
:102880000E946509EC2DFC2DFF0FFF0B3197EE0F19
:10289000FF1FEE0FFF1FCE018F5B9F4FE80FF91F49
:1028A0001082118212821382C957DF4F4881C758A4
:1028B000D0406F2D712FCE018F5B9F4F0E945E0520
:1028C0000C2D9401AE014F5B5F4FCB57DF4F6881FA
:1028D000C558D040CA57DF4F7881C658D040CA018A
:1028E0000E94640D9501C257DF4F48815981CE582F
:1028F000D040C457DF4F68817981CC58D040CB5746
:10290000DF4F8881C558D040CA57DF4F9881C658DD
:10291000D0400E94B4099401AE014F5B5F4FCB578A
:10292000DF4F6881C558D040CA57DF4F7881C658FD
:10293000D040CA010E947A069401A201BE016F5BD9
:102940007F4FCB010E94640D6C2DCE018F5B9F4F9A
:102950000E940A05F5012181E22FF22FFF0FFF0BE4
:1029600048E0240290011124281739070CF4A3CE63
:10297000AE014F5B5F4FBF01C857DF4F8881998120
:10298000C858D0408E0F9F1F0E942C0981E090E014
:1029900094CE612C712CE1CE4C2DB401CE018F5917
:1029A0009F4F0E94C108892B09F017CF84CE8093D6
:1029B000F4019093F501089584E091E00895A4E670
:1029C000B0E0E5EEF4E10C9427165C01A5967FAF2C
:1029D0006EAFA5978A01C12CD12C9A012C5D3F4F77
:1029E000A3963FAF2EAFA397F80182819381AC01EC
:1029F000415E5F4F12F4415E5F4F95E055954795FC
:102A00009A95E1F7A3966EAD7FADA397CE018F5B4C
:102A10009F4F0E94C1087C01892B09F450C0A80176
:102A2000BE016F5B7F4FCE0101960E94A512672BFE
:102A3000682B692BE1F1F80182819381BC01695F08
:102A40007F4F12F4695F7F4F83E0759567958A9594
:102A5000E1F7AE014F5B5F4FA5968EAD9FADA59799
:102A60000E942C09F8016181762F770F770BAE0158
:102A70004F5F5F4FC5010E942C09F80181814081A1
:102A8000F4E04F02A00111249E012F5F3F4F420F3F
:102A9000531F982F990F990BBC018A0D9B1D0E9403
:102AA0002C09C701CC59DF4FEAE00C9443163FEFE5
:102AB000C31AD30A80E4C816D10409F095CFE12CDB
:102AC000F12CEFCFAAE2B0E0E8E6F5E10C9427168E
:102AD0008BA39CA36DA37EA34FA358A729A73AA7B6
:102AE0005801C12CD12CC801849689A39AA3F50161
:102AF00082819381AC01415E5F4F12F4415E5F4F72
:102B000085E0559547958A95E1F769A17AA1CE01AF
:102B100001960E94C108892BB9F0750109A51AA573
:102B20009E012F5F3F4F4FA158A56DA17EA18BA1A4
:102B30009CA10E940F13009749F4FFEFCF1ADF0A00
:102B400080E4C816D10499F680E090E0AA96EAE005
:102B50000C944316DB018F939F930E94E915BF915C
:102B6000AF91A29F800D911DA39F900DB29F900DDC
:102B70001124089597FB072E16F4009407D077FDD3
:102B800009D00E94771607FC05D03EF490958195F8
:102B90009F4F0895709561957F4F08950E94D715B6
:102BA00084FF0895CB010E94D715805F0895AA275E
:102BB000992319F4982B59F0A85F903118F4AD5F60
:102BC0009295A395990FE8F78A2F9927089580E1A8
:102BD00008950E946816A59F900DB49F900DA49F24
:102BE000800D911D11240895E894DF93CF93FC018B
:102BF000DB010E9468167F936F93E9019A01AC0193
:102C0000BF93AF933F932F93DF010E94681626F482
:102C10006C1B7D0B820B930B9E01EB01FC010E9450
:102C20008B16AF91BF912F913F910E948B16BE01E1
:102C3000CF01F9012F913F91CF91DF9108952F920C
:102C40003F924F925F926F927F928F929F92AF923C
:102C5000BF92CF92DF92EF92FF920F931F93CF9389
:102C6000DF93CDB7DEB7CA1BDB0B0FB6F894DEBF20
:102C70000FBECDBF09942A88398848885F846E8446
:102C80007D848C849B84AA84B984C884DF80EE8090
:102C9000FD800C811B81AA81B981CE0FD11D0FB699
:102CA000F894DEBF0FBECDBFED0108952A0D3B1D88
:102CB0004C1D5D1D6E1D7F1D801F911F08952A15DF
:102CC0003B054C055D056E057F058007910708955E
:102CD000A29FB001B39FC001A39F700D811D11245D
:102CE000911DB29F700D811D1124911D0895AA1B85
:102CF000BB1B51E107C0AA1FBB1FA617B70710F0E7
:102D0000A61BB70B881F991F5A95A9F78095909518
:102D1000BC01CD0108950E946816460F571FC81FB9
:102D2000D91F08F431960895DC01CB01FC01F99913
:102D3000FECF06C0F2BDE1BDF89A319600B40D9207
:102D400041505040B8F70895F999FECF92BD81BD2A
:102D5000F89A992780B50895DC01CB0103C02D9125
:102D60000E94B71641505040D0F70895262FF99988
:102D7000FECF1FBA92BD81BD20BD0FB6F894FA9A5E
:0C2D8000F99A0FBE01960895F894FFCF59
:102D8C00785634120514A100FFFFFF7FFFFFFFFFF1
:102D9C00FFFFFFFFFFFFFFFFFFFFFFFF0000000033
:102DAC000000000000000000572275CAD3AE27F9BE
:102DBC00C8F4010000000000000000000100000049
:102DCC00000000000000000082FCCB13B98BC3682C
:102DDC00896964462873F58E68B5964A32FBC57AC4
:102DEC003751230412C9DC597D9468315528A62328
:102DFC0000000000000000000000000000000000C7
:102E0C00000000000000000045FA65C5ADD4D48177
:102E1C009FF8AC658B7ABD54FCBE971C000000007B
:0E2E2C000000000000000000C40D0D0FB70EE6
:00000001FF
