:100000000C9434000C9451000C9451000C94510049
:100010000C9451000C9451000C9451000C9451001C
:100020000C9451000C9451000C9451000C9451000C
:100030000C9451000C9451000C9451000C945100FC
:100040000C9451000C9451000C945C010C945100E0
:100050000C9451000C9451000C9451000C945100DC
:100060000C9451000C94510011241FBECFEFD8E026
:10007000DEBFCDBF11E0A0E0B1E0ECE2F5E202C0EE
:1000800005900D92A23CB107D9F722E0A2ECB1E0B5
:1000900001C01D92AB30B207E1F70E94EB000C9457
:1000A00094120C9400001F93CF93DF93C4E1D0E02F
:1000B000D115A9F00E94DE0112E38FE39CE90197BC
:1000C000F1F700C000000E94D501811559F00E948F
:1000D000DE01C1E08C2FDF91CF911F9108950E9426
:1000E000DC01EACF115049F781E0D827C15001F770
:1000F000F1CFACE8B0E0EFE7F0E00C94FF1164E181
:1001000070E0CE0189589F4F0E948401CE0189582A
:100110009F4F0E947803811108C085E00E94290149
:10012000C457DF4FE2E00C941B120E945300811170
:1001300002C086E0F3CFBE01665C7F4FCE018E59D0
:100140009F4F0E947802811102C082E0E7CF0E9497
:100150009502C557DF4F99838883CB58D040AE01B5
:100160004E595F4FBC01CE0189589F4F0E942A0310
:10017000198280E1C557DF4FE881F981CB58D04023
:10018000DE01129601900D928A95E1F788E2FE0158
:10019000FA96DE01529601900D928A95E1F769E395
:1001A00070E0CE0101960E943001BACF84E091E068
:1001B0000E94440108958EE091E00E944401089558
:1001C0000E94FE000E94D9010E94D2010E943E02BC
:1001D0000E94BB0208950E94E0000E941501823334
:1001E00039F0833341F08130C1F70E947900F5CFB7
:1001F0000E94D600F2CF0E94DB00EFCF82E0809316
:10020000C0001092C50080E18093C40086E0809316
:10021000C20088E98093C10040E468EC71E082ECA0
:1002200091E00E94980178940895A1E0B0E0EBE19C
:10023000F1E00C94FF11BE016F5F7F4F82EC91E003
:100240000E94BA018115B9F389812196E2E00C94EC
:100250001B129091C00095FFFCCF8093C6000895BB
:100260000F931F93CF93DF93EC018C01060F171FA1
:10027000C017D10729F4DF91CF911F910F910895F5
:1002800089910E942901F4CF0F931F93CF93DF939D
:10029000FC0101900020E9F78F0101501109EC01E8
:1002A000C017D10729F4DF91CF911F910F910895C5
:1002B00089910E942901F4CF1F920F920FB60F92DD
:1002C00011242F933F934F935F936F937F938F935B
:1002D0009F93AF93BF93EF93FF936091C60082EC1F
:1002E00091E00E94A001FF91EF91BF91AF919F918A
:1002F0008F917F916F915F914F913F912F910F90CF
:100300000FBE0F901F9018950F931F93CF93DF93FD
:10031000EC018C01060F171FC017D10729F4DF91DC
:10032000CF911F910F9108950E9415018993F4CFE9
:10033000FC016083718312821382148245830895C5
:10034000FC0194818581981798F48381A081B18103
:10035000A80FB11D6C9383818F5F838394819F5F0E
:1003600094839581891711F081E008951382FCCF61
:1003700080E00895FC018481811599F08281A0813B
:10038000B181A80FB11D8C91DB018C9382818F5FAD
:1003900082839481915094839581891301C0128244
:1003A00081E0089552985A9A089588274A9B839528
:1003B0000895259A2D9808955C9A08955C9808955B
:1003C0000F931F93CF93DF9320910802211109C04F
:1003D00020E420937C0026E820937A0021E02093FB
:1003E0000802FC01EC01C60FD71FEC17FD0739F41A
:1003F00081E090E0DF91CF911F910F91089580915E
:100400007A00806480937A0080917A0086FDFCCF28
:100410000091780010917900209100013091010144
:1004200040910201509103016DE67EE486EC91E477
:100430000E947A11DC01CB01800F911FA11DB11D1B
:10044000875C9F4CAF4FBF4F809300019093010199
:10045000A0930201B093030146B52091840030912E
:100460008500342B9327822780930001909301010C
:10047000A0930201B0930301B193B7CF82E085BD91
:1004800080E480937C0086E880937A002AE0809163
:100490007A00806480937A0080917A0086FDFCCF98
:1004A0004091780050917900809100019091010174
:1004B000A0910201B091030195278427880F991F0D
:1004C000AA1FBB1F811D8093000190930101A0937F
:1004D0000201B09303018FE891E00197F1F700C0AA
:1004E00000002150A1F680EE91E00E94EF100895E7
:1004F000A4E0B0E0EEE7F2E00C94FF1189839A8368
:100500006B837C830E94F410AC0169817A818B81BA
:100510009C810E94F7109C0181E02130310509F097
:1005200080E02496E2E00C941B12A0E1B0E0EBE93D
:10053000F2E00C94FF11BD01CE0101960E94E00192
:1005400080E090E06096E2E00C941B120F931F9302
:10055000CF9300E010E0C0E0C8010E9474128F3F0A
:1005600029F0CF5F075C1F4FC131B1F78C2FCF91BE
:100570001F910F910895CF93DF9389EC90E00E9433
:1005800074128A3C31F48AEC90E00E9474128E3F1F
:10059000A9F0C0E0D0E06FEFCE010E948612E9968C
:1005A000C93C83E0D807B9F76AEC89EC90E00E9477
:1005B00086126EEF8AEC90E00E948612DF91CF9156
:1005C0000895AF92BF92CF92DF92EF92FF921F9366
:1005D000CF93DF93CDB7DEB764970FB6F894DEBF45
:1005E0000FBECDBF6C01E12CF12C10E05C0184E169
:1005F000A80EB11CC7010E9474128F3F21F144E183
:1006000050E0B701CE0101960E946412DE011196FE
:10061000F6019C918081981316C011963196EA15C7
:10062000FB05B9F7812F64960FB6F894DEBF0FBEB5
:10063000CDBFDF91CF911F91FF90EF90DF90CF90D2
:10064000BF90AF9008951F5F89E3E80EF11C113150
:1006500089F6E8CFA8E0B0E0E0E3F3E00C94FF1106
:1006600089839A836B837C834D835E830E94E1023E
:100670008131F1F099E3899F9001112429833A8314
:10068000B9016C5E7F4F40E150E08B819C810E94FC
:100690007C1269817A816C5D7F4F45E150E08D81EC
:1006A0009E810E947C1281E02896E2E00C941B124D
:1006B0000E94A6028131D1F099E3899F9001112413
:1006C0002F83388744E150E0B90189819A810E94E3
:1006D0007C126F8178856C5E7F4F40E150E08B81AA
:1006E0009C810E947C126F817885D5CF80E0DCCF21
:1006F000A2E0B0E0EEE7F3E00C94FF1189839A8367
:100700000E94E1020E94290189819A810E94E102EE
:10071000813159F40E94A60291E0813109F490E000
:10072000892F2296E2E00C941B1281E0FACFFC01A3
:1007300080E086170CF00895119211921192119297
:100740008F5FF7CFCF92DF92EF92FF92FC0180E0B4
:1007500040E050E09A01861774F061E070E080E0BC
:1007600090E0232B242B252B09F060E0FF90EF90E5
:10077000DF90CF900895C190D190E190F1902C2915
:100780003D294E295F298F5FE6CF9B0145E03595D6
:1007900027954A95E1F7220F331F220F331FFC01E3
:1007A000E20FF31F9B012F7161E070E080E090E0A9
:1007B00004C0660F771F881F991F2A95D2F72081E2
:1007C00031814281538162237323842395230895C9
:1007D000CF92DF92EF92FF926150762F770F770BD7
:1007E00067FD12C09B0121503109F901EE0FFF1F77
:1007F000EE0FFF1FE80FF91FC480D580E680F78059
:10080000CD28CE28CF2879F16F5F99F1262F660F7A
:10081000330BA9014150504C440F551F440F551F35
:10082000840F951FFC016081718182819381009703
:1008300070406040D1F00E949E1140E250E0BA0149
:10084000681B790BCB012150310940E2349F302DD8
:10085000249F202D31291124820F931FFF90EF90A8
:10086000DF90CF900895B901BBCFA0E0B0E0CD01FB
:10087000EACF80E090E0F2CF0F931F93FB01DC0101
:1008800080E084171CF01F910F9108950191119140
:10089000219131910D931D932D933D938F5FF1CF56
:1008A000CF92DF92EF92FF92CF93DF93FC01415002
:1008B000542F550F550B47FF08C080E0DF91CF91B3
:1008C000FF90EF90DF90CF9008959A01220F331F91
:1008D000220F331FDF01A20FB31FCD90DD90ED90EB
:1008E000FD90260F371FE90188819981AA81BB817C
:1008F0008C159D05AE05BF0548F041505109C8163D
:10090000D906EA06FB06B8F68FEFD8CF81E0D6CF3E
:10091000CF92DF92EF92FF920F931F9324E0620237
:10092000F0011124E80FF91F20E030E089018E1753
:100930009F0738F01F910F91FF90EF90DF90CF90BD
:100940000895F290E290D290C290A601B7017695F8
:10095000679557954795402B512B622B732B4083FE
:10096000518362837383C0FA332737F920E000E0B4
:1009700010E0DDCFA3E0B0E0E0ECF4E00C94F51182
:1009800029835C01DB014A0140E080E090E0BC018A
:10099000F9814F1724F02396ECE00C941112CD90BE
:1009A000DD90ED90FD90F401019111912191319133
:1009B0004F010C0D1D1D2E1D3F1D060F171F281F5B
:1009C000391FC016D106E206F30659F051E00C15A6
:1009D0001D052E053F0508F050E0652F70E080E012
:1009E00090E0F50101931193219331935F014F5FE3
:1009F000CFCFA3E0B0E0EFEFF4E00C94F111298346
:100A00003C01DB012A0140E080E090E0BC01F9817B
:100A10004F1724F02396E0E10C940D12CD90DD9059
:100A2000ED90FD90F20181909190A190B1902F01F5
:100A300086019701061B170B280B390B081919099A
:100A40002A093B09C016D106E206F30659F051E027
:100A5000C016D106E206F30608F050E0652F70E0FC
:100A600080E090E0F30101931193219331933F01D2
:100A70004F5FCDCFA2E2B0E0E0E4F5E00C94FF11CF
:100A800049A3242FAB01BC01CE0101960E94F904B9
:100A90006AA369A1CE0101960E94A203862F21E0DC
:100AA00082272AA1220F821BA296E2E00C941B123D
:100AB0000F93CF93DF9300D000D0CDB7DEB78B83F9
:100AC0009C8329833A83202F0E94BA04672B682BCA
:100AD000692B49F4402F6B817C8189819A810E9426
:100AE0005004813041F0202F49815A816B817C81F3
:100AF000CB010E94F9040F900F900F900F90DF919F
:100B0000CF910F910895A4E9B0E0E9E8F5E00C94E5
:100B1000EF11C257DF4F99838883CE58D0404A01E6
:100B2000CB57DF4F2883C558D040CE010196CF5711
:100B3000DF4F99838883C158D040CD57DF4F7983E9
:100B40006883C358D040E22EF22EFF0CFF08622FBC
:100B5000CA010E94E803CB57DF4F2881C558D04017
:100B600030E4230210011124281A390A810137FECA
:100B700002C0015E1F4F65E0159507956A95E1F784
:100B800070E2A72EB12CC101B5010E948A116C013F
:100B9000602FCE018F5B9F4F0E9497031C140CF0B7
:100BA00089C0D40144E00402F0011124BE016F5B4E
:100BB0007F4FE60FF71F80E090E02C01320191019A
:100BC0002F71A5014C19C42E8E159F0509F050C038
:100BD0006701CC0CDD1CC657DF4FD982C882CA58CA
:100BE000D040C701880F991F880F991F21E4C22E9A
:100BF000D12CCC0EDD1EC80ED91ECA57DF4FD982AC
:100C0000C882C658D040A12CB12C4501839421E064
:100C1000E21AF108EE0CFF1CEE0CFF1C51E4C52E8D
:100C2000D12CCC0EDD1ECE0CDF1CC857DF4FD98275
:100C3000C882C858D04037FE0BC1880C991CFE01F1
:100C4000EF57FF4FE80DF91D60817181CB57DF4FE2
:100C50004881C558D040C257DF4F88819981CE580E
:100C6000D0400E943C04CC56DF4FE2E10C940B12C2
:100C70008D909D90AD90BD90A401B501022E04C051
:100C8000440F551F661F771F0A94D2F74429552930
:100C9000662977294193519361937193240135011A
:100CA0000C2C04C076946794579447940A94D2F716
:100CB00001968ACF54E00502C0011124CB57DF4FC3
:100CC0004881C558D040B401DE01AF5BBF4F8A0FE9
:100CD0009B1F0E943C047CCFCC56DF4F8881C459B7
:100CE000D04094E0890290011124C457DF4FA881BD
:100CF000B981CC58D0408D919D91FC01E20FF31F3A
:100D00004080518062807380FE01EF5BFF4FE20FF5
:100D1000F31F80819181A281B3816C017D01C40E9A
:100D2000D51EE61EF71EC201D3018C199D09AE091E
:100D3000BF09C057DF4F88839983AA83BB83C059FB
:100D4000D040481659066A067B0699F081E0C057E4
:100D5000DF4FC880D980EA80FB80C059D0404C1456
:100D60005D046E047F0408F080E0482F50E060E0EE
:100D700070E0D8018D919D91820F931FC057DF4F76
:100D8000C880D980EA80FB80C059D040DC01CD9278
:100D9000DD92ED92FD92CC56DF4FB881C459D04020
:100DA000BF5FCC56DF4FB883C459D040CC56DF4F1D
:100DB0002881C459D040C657DF4FE880F980CA580F
:100DC000D040022E001C00082E150F040CF484CF16
:100DD00081E084169506A606B70609F080E0882E05
:100DE000912CA12CB12CCB57DF4F6881C558D04036
:100DF000CE018F5B9F4F0E948804CA57DF4FE88166
:100E0000F981C658D040808180FBBB27B7F9C8570D
:100E1000DF4FE881F981C858D0404081518162811B
:100E20007381CA01B72B808391836283B383CB57CD
:100E3000DF4F6881C558D040CA57DF4F88819981FC
:100E4000C658D0400E948804F1E02F1A3108F3CE32
:100E5000CC56DF4F1882C459D04040E050E0BA0170
:100E6000C401880F991FFE01EF57FF4FE80FF91FCC
:100E7000C457DF4FF983E883CC58D0408401F1E0B8
:100E80000F27000F111FF1E8CF2ED12CCC0EDD1E45
:100E90000C0D1D1D8BCFA4E0B0E0E1E5F7E00C9454
:100EA000F9116B0149835A83F9010280F381E02D26
:100EB000EB83FC838F01015E1F4F12F4015E1F4F15
:100EC00045E0159507954A95E1F72C5D3F4F79016F
:100ED000202FA701BC01C6010E94BA04672B682B12
:100EE000692B31F520E20202C00111244B815C81A3
:100EF000481759070CF5BA01C6010E94C50321E045
:100F0000672B682B692B09F420E02B831C82202F90
:100F1000A701B60189819A810E94BA04EB81FC8104
:100F2000BF01FF0F880B982F2496E8E00C94151250
:100F300081E08B831C82EBCF1B821C82E8CFA5E073
:100F4000B0E0E5EAF7E00C94F5118C016A837B834D
:100F500049838091090290910A02892B31F480E043
:100F600090E02596ECE00C94111269818A819B81B6
:100F70000E94E803298134E0230260011124A601C4
:100F800044505109400F511F4C835D8350E22502AC
:100F900090011124281BE12CF12C8FEFB82EAB2CE3
:100FA000450104C0B694A794979487942A95D2F7E4
:100FB000E0910902F0910A02B601C8010995892B56
:100FC00071F2EC81FD8180819181A281B3818821C0
:100FD0009921AA21BB2180839183A283B383698154
:100FE000C8010E94A203672B682B692B41F4498139
:100FF000B8018A819B810E943A05813041F0FFEF60
:10100000EF1AFF0A20E4E216F10491F6A8CF81E07E
:1010100090E0A7CFA4E0B0E0E0E1F8E00C94FB1191
:10102000DB014B835C839B017C0180E090E08A17AD
:101030009B0724F02496E6E00C9417122150310906
:10104000B9016C7F0B811C81600F711F422F4370AF
:1010500050E0FA0143E0EE0FFF1F4A95E1F7E98304
:10106000FA83FB014081518162817381098004C050
:1010700076956795579547950A94D2F7F70141936E
:101080007F010196D4CF0F93CF93DF9300D000D090
:10109000CDB7DEB78B839C8329833A83202F0E94B0
:1010A000F904672B682B692B41F0202F49815A8165
:1010B0006B817C81CB010E94BA040F900F900F903E
:1010C0000F90DF91CF910F910895CF92DF92EF9221
:1010D000FF92CF93DF9300D00F92CDB7DEB78A8314
:1010E0009B834983FC0180819181A281B38180FB34
:1010F000CC24DD247601C0F880FF08C0242FAB018A
:10110000BF01CF010E94BA046B017C0169818A8111
:101110009B810E948804CD28CE28CF28B9F08981F0
:10112000E82F880FFF0BE150F04CEE0FFF1FEE0F82
:10113000FF1F8A819B81E80FF91F80819181A28125
:10114000B381B06880839183A283B3830F900F90A3
:101150000F90DF91CF91FF90EF90DF90CF900895A7
:10116000A5E8B0E0E6EBF8E00C94F911CD57DF4FBD
:1011700099838883C358D0407B018A01CF57DF4FC2
:101180002883C158D040622FC7010E94A203672B59
:10119000682B692B91F0CF57DF4F6881C158D04041
:1011A000CD57DF4F88819981C358D0400E94970363
:1011B000CB57DF4FE8E00C941512CF57DF4F488133
:1011C000C158D040B701CE018F599F4F0E943C04B7
:1011D000CF57DF4F4881C158D040B801CE018F5B57
:1011E0009F4F0E943C046E0181E2C80ED11CCF5774
:1011F000DF4F6881C158D040C6010E94970381E04B
:1012000089A31AA21BA21CA2CF57DF4F6881C15825
:10121000D0407E018FEFE81AF80AC7010E949703B9
:10122000CB57DF4FD882C558D040DE2CCF57DF4F89
:101230004881C158D040BE016F5B7F4FCE018F59AE
:101240009F4F0E945004811114C0CF57DF4F488137
:10125000C158D0406C2DCB57DF4F7881C558D04056
:10126000CD57DF4F88819981C358D0400E943C04FC
:101270009FCFA5964CAD5DAD6EAD7FADA59740FD02
:1012800019C0CF57DF4F6881C158D040CE018F5968
:101290009F4F0E948804CF57DF4F4881C158D040EC
:1012A000B8018C2DCB57DF4F9881C558D0400E9494
:1012B0006508BCCF25964CAD5DAD6EAD7FAD259775
:1012C00040FD13C0CF57DF4F6881C158D040CE01D9
:1012D0008F5B9F4F0E948804CF57DF4F4881C158D2
:1012E000D040B8018D2D9F2DE2CFCF57DF4F288101
:1012F000C158D040AE01813009F045C04F5B5F4F0F
:10130000BE016F597F4FCB010E94F904CF57DF4FC9
:101310006881C158D040CE018F599F4F0E948804E8
:10132000CF57DF4F4881C158D0406D2D7F2D8C2D78
:10133000CB57DF4F9881C558D0400E9450048F3F53
:1013400081F4CF57DF4F2881C158D040A8016C2DC0
:10135000CB57DF4F7881C558D0408C2D972F0E94F6
:10136000BA04CF57DF4F2881C158D0404D2D5F2D93
:101370006C2DCB57DF4F7881C558D0408C2D972FDF
:101380000E94F90488CF4F595F4FBE016F5B7F4FBA
:10139000CB010E94F904CF57DF4F6881C158D0407C
:1013A000CE018F5B9F4F0E948804CF57DF4F48814B
:1013B000C158D0406C2DCB57DF4F7881C558D040F5
:1013C0008D2D9F2D0E9450048F3F61F4CF57DF4F2A
:1013D0002881C158D040A8016D2D7F2D8D2D9F2DC6
:1013E0000E94BA04CF57DF4F2881C158D0404C2DFE
:1013F000CB57DF4F5881C558D0406D2D7F2D8D2D97
:101400009F2D0E94F90468CFAAE2B0E0EAE0FAE07A
:101410000C94EF118A8F9B8F6C8F7D8F4E8F5F8F17
:101420002A871C014C5F5F4F4A01612C712C2301FC
:10143000620172011982B981EA85BE174CF18E2FC3
:10144000880F990B9C012150310928A339A331E061
:101450003D832E2E2A948D81820DE8A1F9A1082EBC
:10146000001C00088E170F060CF49EC0FA8528E0B9
:10147000F202C00111244A8D5B8D840F951FFC017F
:10148000F292E292D292C292AA96E2E10C940B12EC
:101490004C8D5D8D4B875C878D869E861E821F825C
:1014A000188619861D82AB85BC852D913D914D9185
:1014B0005D91AB87BC87ED85FE859291829172919B
:1014C0006291ED87FE870E94C4112F87388B498B6C
:1014D0005A8B6B8B7C8B8D8B9E8B9201A3013BA3D4
:1014E0006CA25DA31EA21FA218A619A6C301B20179
:1014F000AC2CBD2C6701E42CF72E192F2F853889D1
:1015000049895A896B897C898D899E89062D0E941B
:1015100026122AA33AA7F42FE52FDB01898F98A37F
:1015200044244394512C612C712CAF84B888C98811
:10153000DA88EB88FC880D891E890E942F1208F03A
:10154000412C4E815F8168857985440D551D661D4E
:10155000771D4E835F8368877987898D98A100E224
:101560009D01AC012D013A01CAA0DAA4EF2EFE2E96
:101570006D816F5F6D83798176170CF094CFD10107
:10158000CD92DD92FD93EC9384E0280E311C99817D
:101590009F5F9983A4E08A0E911C69017A014E80B5
:1015A0005F806884798447CF4D81542F550F550B48
:1015B0004E835F8394E08902B00111246B877C879E
:1015C00042015301612C712C23017E818A85781799
:1015D00084F0EA8DFB8DAB85BC85EA0FFB1FC082D2
:1015E000D182E282F382BD81BF5FBD836401750158
:1015F00032CF6CEF4E815F8164039001659F300DA7
:101600001124EC8DFD8DE21BF30B608171818281D1
:101610009381AB85BC852A0F3B1FEE8DFF8DE20FBA
:10162000F31F20813181428153810E94C4112D8793
:101630003F87488B598B6A8B7B8B8C8B9D8B94015E
:10164000A5018AA23BA3ACA25DA31EA21FA218A65D
:1016500019A6C501B401AC2CBD2C6701E82CF72EEE
:10166000E42F192F2D853F85488959896A897B89FF
:101670008C899D890E2F0E942612B22FA32FF42F42
:10168000E52F6E8B7F8B888F998F31E039831A829B
:101690001B821C822B2F3A2F4F2F5E2FAD84BF84CD
:1016A000C888D988EA88FB880C891D890E942F1276
:1016B00008F0198249815A816B817C81440E551E44
:1016C000661E771E6E897F89888D998D00E29B0149
:1016D000AC0149015A01CB2EDA2EEF2EFE2E6E817F
:1016E0007F816F5F7F4F6E837F836FCFA3E4B0E016
:1016F000ECE7FBE00C94FD1124969FAF8EAF24978E
:101700008901F901F0812296FFAF22972F2FCE0198
:1017100001960E94040AA8014C5F5F4F22962FADEC
:101720002297BE016F5F7F4F24968EAD9FAD2497A9
:101730000E948305CD5BDF4FE4E00C9419129A01FF
:10174000AB010E94760B0895A4E4B0E0EAEAFBE066
:101750000C94EF116C013B017A014901F9011081F0
:10176000612FCA010E94A203672B682B692B09F025
:10177000D4C02E01F1E24F0E511CA401B301C201ED
:101780000E949F0B9401A201B6011E018FEF281A3F
:10179000380AC1010E94760BA401B201C2010E9465
:1017A0009F0B9401A701B301C3010E94760BA40112
:1017B000B701C7010E949F0B5401E4E0AE0EB11CBB
:1017C000012F9501A701B601C6010E945805950198
:1017D000A701B701C7010E9458059501A701B601ED
:1017E000C7010E9443089401A701B601C6010E94E7
:1017F000760B9501A601B601C7010E945805950117
:10180000A701B601C6010E945805F60180819181A9
:10181000A281B38123964FAE239724965FAE24977F
:1018200025962FAE259722963FAE229780FF7AC04D
:10183000212FA501B601C6010E94BA041B012C018B
:10184000612FC6010E948804E12FF12FFF0FFF0BCB
:10185000E150F04CEE0FFF1FEE0FFF1FEC0DFD1DD2
:1018600020FA772777F980819181A281B381B72B04
:1018700080839183A283B383A401B601C7010E9430
:101880009F0B012F950125964FAD259722965FADB1
:101890002297B701C7010E944308950125964FADD5
:1018A000259722965FAD2297B701C7010E94430892
:1018B0009501A70125966FAD259722967FAD2297BA
:1018C000CB010E944308940125964FAD259722969F
:1018D0005FAD2297B601C6010E94760B9501239653
:1018E0004FAD239724965FAD2497B601CA010E949D
:1018F0004308412FB701C6010E943C04412FB301A8
:10190000C7010E943C04412F23966FAD2397249674
:101910007FAD2497C3010E943C04CC5BDF4FE2E122
:101920000C940B12612FC6010E948804A5CFAF92C0
:10193000BF92CF92DF92EF92FF920F93CF93DF93FC
:10194000CDB7DEB7A3970FB6F894DEBF0FBECDBFFD
:101950007C016AA37BA36A01FE0135968CE1DF015D
:101960001D928A95E9F783E089831A821B821C8283
:10197000FA01F081F9A36AA17BA1C7010E949F0B24
:10198000560184E0A80EB11C09A19501AE014F5F7C
:101990005F4FB701C7010E94430896014AA15BA1AE
:1019A000B701C7010E94760BA6014C575F4F09A1F2
:1019B0009501B701C7010E945805A3960FB6F89488
:1019C000DEBF0FBECDBFDF91CF910F91FF90EF90A3
:1019D000DF90CF90BF90AF900895A3E4B0E0E3EF25
:1019E000FCE00C94F91124969FAF8EAF24976B0105
:1019F0002CE1FE01B596DF01822F1D928A95E9F751
:101A000081E089A31AA21BA21CA2AE014B5F5F4F0B
:101A1000FA0111922A95E9F789831A821B821C82A6
:101A2000DB01BC912296BFAF22977E01E1E2EE0E70
:101A3000F11C6C5F7F4F2B2FA701C7010E94BA04D6
:101A400022966FAD2297C7010E94E8038C010150D6
:101A50001109023011058CF422964FAD2297BE0178
:101A60006F5F7F4F24968EAD9FAD24970E943C04FC
:101A7000CD5BDF4FE8E00C941512A601BE016F5F4D
:101A80007F4FCB010E949F0BB801C7010E94C50385
:101A9000672B682B692BD9F2960124964EAD5FAD6A
:101AA0002497BE016F5F7F4FCB010E94760BCFCF93
:101AB000A6E2B0E0EEE5FDE00C94FD1189A39AA347
:101AC0006BA37CA34DA35EA38901A9016DA17EA197
:101AD000CE0101960E949F0B9801AE014F5F5F4FB0
:101AE00069A17AA1CB010E94760B98014DA15EA15C
:101AF000BE016F5F7F4FCB010E94760B9801AE0154
:101B00004F5F5F4F6BA17CA1CB010E94760BA69625
:101B1000E4E00C941912A2E2B0E0E1E9FDE00C94DB
:101B2000F1114C012B016A01590109A31AA3F70114
:101B300010813701F4E06F0E711C012F9301AC018D
:101B4000B601CE0101960E944308A701BE016F5F56
:101B50007F4FCB010E949F0B9701AE014F5F5F4FFC
:101B6000B401C4010E94760B9701AE014F5F5F4F35
:101B7000B601C6010E94760B9301A201B501C50111
:101B80000E944308A701B501CE0101960E949F0B58
:101B90009301A401BE016F5F7F4FCB010E944308F8
:101BA0009301A601BE016F5F7F4FCB010E944308E6
:101BB0009301A401B601C6010E9443089701A60142
:101BC000B201C2010E94760B9301AE014F5F5F4FDD
:101BD000B40189A19AA10E944308970149A15AA181
:101BE000B501C5010E94760B9301A201B501C501A3
:101BF0000E944308412FBE016F5F7F4FC6010E94C4
:101C00003C04A296E0E10C940D12A0E6B0E0EBE0FB
:101C1000FEE00C94F1114C012B015A016901B8014D
:101C20003701F7011081A701CE018F5B9F4F0E9402
:101C30009F0B9701AE014F5B5F4FB401C4010E943F
:101C4000760B9701AE014F5B5F4FB501C5010E9456
:101C5000760BF4E0EF0EF11C012F9701A201B60103
:101C6000CE018F5B9F4F0E9458059701A201B601DC
:101C7000C6010E9443089701A401B501CE018196D7
:101C80000E9443089301AE014F5D5F4FB201C20154
:101C90000E94760B9701A501B401CE0181960E94A6
:101CA0005805A301B601C5010E949F0B9701AE0123
:101CB0004F5D5F4FB501C5010E9443089701A50123
:101CC000B401CE0101960E9443089301AE014F5F1B
:101CD0005F4FB601C6010E94760B9701A201B601C3
:101CE000C6010E944308A301BE016F5B7F4FCE0176
:101CF00001960E949F0B9701AE014F5D5F4FBE01A1
:101D00006F5F7F4FCB010E9443089701A401BE0182
:101D10006F5F7F4FCE0181960E9443089301AE0111
:101D20004F5B5F4FBE016F5D7F4FCB010E94760B13
:101D30009701A201BE016F5D7F4FC2010E9443085F
:101D4000412FBE016F5F7F4FC4010E943C04C05A07
:101D5000DF4FE0E10C940D12ADECB0E0E2EBFEE001
:101D60000C94EF11C653DF4F99838883CA5CD0402F
:101D7000CC53DF4F79836883C45CD040C453DF4FBA
:101D800059834883CC5CD040590138016701F70181
:101D9000F081CF53DF4FF883C15CD0407E0121E654
:101DA000E20EF11C4F2FC7010E943C04CF53DF4FBE
:101DB0003881C15CD04044E0340210011124CC537E
:101DC000DF4F88819981C45CD040820D931DCA5336
:101DD000DF4F99838883C65CD0408E010F5D1F4F13
:101DE000432FBC01C8010E943C04F6019080A1145D
:101DF000B10409F416C1492DB501CE018F579F4F8B
:101E00000E943C04492DB701CE018F5B9F4F0E9479
:101E10003C04492DB801CE0101960E943C04960174
:101E2000AE014F575F4FB801C7010E94580DF60130
:101E3000EC55FF4F0190F081E02D9601AE014F5718
:101E40005F4FB801C70109959601AE014F575F4F2B
:101E5000BE016F5F7F4FCE018F5B9F4F0E94580D79
:101E600096012C5F3F4FCE53DF4F39832883C25CEE
:101E7000D040CF53DF4F0881C15CD040A701BE01E5
:101E80006F5B7F4FCE018F579F4F0E9443084301E6
:101E900032E0831A9108181419040CF4D5C0C45305
:101EA000DF4FE881F981CC5CD0408081817090E087
:101EB000AC01F1E04F275195419551094072442EF4
:101EC0005524712C6F2E6C0E7D1E640C751C9E01AA
:101ED0002F5B3F4F420E531E919581959109807261
:101EE000A82EBB24912C8F2E8C0E9D1E8A0C9B1C21
:101EF000A20EB31E76018E010F571F4F9301A20150
:101F0000B401C5010E94050ECF53DF4F0881C15CAB
:101F1000D040CE53DF4F28813981C25CD040AE0122
:101F20004F5B5F4FBE016F597F4FCE018F559F4F63
:101F30000E9443089601A401BE016F557F4FCB015B
:101F40000E94760B9601CC53DF4F48815981C45CC7
:101F5000D040BE016F557F4FCB010E94760BCF530F
:101F6000DF4F2881C15CD040CE53DF4F488159817B
:101F7000C25CD040BE016F557F4FCB010E94B008BC
:101F80009601CA53DF4F48815981C65CD040BE01DB
:101F90006F557F4FCB010E94760B9601A501BE01C4
:101FA0006F557F4FCB010E94760B8E010F571F4F4D
:101FB0009401A501B301C2010E948B0D9601AE01EF
:101FC0004F555F4FBE016F5F7F4FCE018F5B9F4FBD
:101FD0000E94580DCF53DF4F4881C15CD040BE01F5
:101FE0006F5B7F4FC653DF4F88819981CA5CD040B9
:101FF0000E943C04CF53DF4F4881C15CD040BE01FA
:102000006F5F7F4FC653DF4F88819981CA5CD04094
:10201000820D931D0E943C04C353DF4FE2E10C94F8
:102020000B12692DCE018F579F4F0E94970381E0BD
:1020300090E0A0E0B0E0CF57DF4F88839983AA8378
:10204000BB83C158D040DECEB401C453DF4F88817A
:102050009981CC5CD0400E94C50321E030E000971C
:102060007040604009F020E0E0E23E9F302D2E9F5E
:10207000202D31291124F1E04F2E512C4C0E5D1EE4
:10208000420E531EAE014F5B5F4F420F531FC853AA
:10209000DF4F59834883C85CD04021E030E0672B94
:1020A000682B692B09F420E050E2359FB02C259F66
:1020B000A02CB128112461E0662E712C6C0E7D1EBF
:1020C0006A0C7B1CCE018F5B9F4FA80EB91E760158
:1020D0008E010F571F4F9201C853DF4F488159811E
:1020E000C85CD040B301C5010E94050E9301A50153
:1020F000B201C853DF4F88819981C85CD0400E94EB
:102100008B0D91E0891A9108C6CEA6E4B0E0EBE809
:10211000F0E10C94F71127969FAF8EAF2797CB0174
:102120006A01BE016F5D7F4F23967FAF6EAF23972D
:10213000AE014F5F5F4F25965FAF4EAF259796017B
:102140000E944B077B018C018091090290910A0249
:10215000892BC1F0F701EE0FFF1FCE018F5B9F4F60
:10216000E80FF91FA080B180F6014081B6016C5FD5
:102170007F4FC5010E949F07892B31F480E090E0DA
:10218000BC0128C0A12CB12CF6018281938101965B
:10219000F1E0EF26EE0CFF1CFE01EF5BFF4FEE0DB2
:1021A000FF1D40815181B6016C5B7F4F76018C0130
:1021B000950127968EAD9FAD27970E94AC0EF60134
:1021C0006081660F27968EAD9FAD27970E94A20370
:1021D000F1E06F27CA5BDF4FEAE00C9413128093A3
:1021E000090290930A02089588E191E00895A4E617
:1021F000B0E0EDEFF0E10C94F7115C01A5967FAF34
:102200006EAFA5978A01C12CD12C9A012C5D3F4F4E
:10221000A3963FAF2EAFA397F80182819381AC01C3
:10222000415E5F4F12F4415E5F4F95E055954795D3
:102230009A95E1F7A3966EAD7FADA397CE018F5B24
:102240009F4F0E949F077C01892B09F450C0A80171
:10225000BE016F5B7F4FCE0101960E948510672BF8
:10226000682B692BE1F1F80182819381BC01695FE0
:102270007F4F12F4695F7F4F83E0759567958A956C
:10228000E1F7AE014F5B5F4FA5968EAD9FADA59771
:102290000E940A08F8016181762F770F770BAE0153
:1022A0004F5F5F4FC5010E940A08F801818140819C
:1022B000F4E04F02A00111249E012F5F3F4F420F17
:1022C000531F982F990F990BBC018A0D9B1D0E94DB
:1022D0000A08C701CC59DF4FEAE00C9413123FEF14
:1022E000C31AD30A80E4C816D10409F095CFE12CB3
:1022F000F12CEFCFDB018F939F930E94B911BF9117
:10230000AF91A29F800D911DA39F900DB29F900D44
:102310001124089597FB072E16F4009407D077FD3B
:1023200009D00E94471207FC05D03EF49095819594
:102330009F4F0895709561957F4F08950E94A71152
:1023400084FF0895CB010E94A711805F0895AA27FA
:10235000992319F4982B59F0A85F903118F4AD5FC8
:102360009295A395990FE8F78A2F9927089580E110
:1023700008950E943812A59F900DB49F900DA49FC0
:10238000800D911D11240895E894DF93CF93FC01F3
:10239000DB010E9438127F936F93E9019A01AC012F
:1023A000BF93AF933F932F93DF010E94381226F41F
:1023B0006C1B7D0B820B930B9E01EB01FC010E94B9
:1023C0005B12AF91BF912F913F910E945B12BE01B2
:1023D000CF01F9012F913F91CF91DF9108952F9275
:1023E0003F924F925F926F927F928F929F92AF92A5
:1023F000BF92CF92DF92EF92FF920F931F93CF93F2
:10240000DF93CDB7DEB7CA1BDB0B0FB6F894DEBF88
:102410000FBECDBF09942A88398848885F846E84AE
:102420007D848C849B84AA84B984C884DF80EE80F8
:10243000FD800C811B81AA81B981CE0FD11D0FB601
:10244000F894DEBF0FBECDBFED0108952A0D3B1DF0
:102450004C1D5D1D6E1D7F1D801F911F08952A1547
:102460003B054C055D056E057F05800791070895C6
:10247000A29FB001B39FC001A39F700D811D1124C5
:10248000911DB29F700D811D1124911D0895AA1BED
:10249000BB1B51E107C0AA1FBB1FA617B70710F04F
:1024A000A61BB70B881F991F5A95A9F78095909581
:1024B000BC01CD0108950E943812460F571FC81F56
:1024C000D91F08F431960895DC01CB01FC01F9997C
:1024D000FECF06C0F2BDE1BDF89A319600B40D9270
:1024E00041505040B8F70895F999FECF92BD81BD93
:1024F000F89A992780B50895DC01CB0103C02D918E
:102500000E94871241505040D0F70895262FF99924
:10251000FECF1FBA92BD81BD20BD0FB6F894FA9AC6
:0C252000F99A0FBE01960895F894FFCFC1
:10252C0078563412636F6D6D616E64203200636F88
:10253C006D6D616E642033000514A100FFFFFF7FF9
:10254C00FFFFFFFFFFFFFFFFFFFFFFFFFFFFFFFF8F
:10255C00000000000000000000000000572275CAB7
:10256C00D3AE27F9C8F40100000000000000000001
:10257C0001000000000000000000000082FCCB13F2
:10258C00B98BC368896964462873F58E68B5964A19
:10259C0032FBC57A3751230412C9DC597D9468315A
:1025AC005528A623000000000000000000000000D9
:1025BC0000000000000000000000000045FA65C5A6
:1025CC00ADD4D4819FF8AC658B7ABD54FCBE971CFE
:1025DC00000000000000000000000000A40BED0C47
:0225EC00970C4A
:00000001FF
